{
  "_format": "hh-sol-artifact-1",
  "contractName": "Finale",
  "sourceName": "contracts/Finale.sol",
  "abi": [
    {
      "inputs": [
        {
          "internalType": "address[]",
          "name": "_addresses",
          "type": "address[]"
        }
      ],
      "stateMutability": "nonpayable",
      "type": "constructor"
    },
    {
      "anonymous": false,
      "inputs": [
        {
          "indexed": true,
          "internalType": "address",
          "name": "owner",
          "type": "address"
        },
        {
          "indexed": true,
          "internalType": "address",
          "name": "approved",
          "type": "address"
        },
        {
          "indexed": true,
          "internalType": "uint256",
          "name": "tokenId",
          "type": "uint256"
        }
      ],
      "name": "Approval",
      "type": "event"
    },
    {
      "anonymous": false,
      "inputs": [
        {
          "indexed": true,
          "internalType": "address",
          "name": "owner",
          "type": "address"
        },
        {
          "indexed": true,
          "internalType": "address",
          "name": "operator",
          "type": "address"
        },
        {
          "indexed": false,
          "internalType": "bool",
          "name": "approved",
          "type": "bool"
        }
      ],
      "name": "ApprovalForAll",
      "type": "event"
    },
    {
      "anonymous": false,
      "inputs": [
        {
          "indexed": true,
          "internalType": "address",
          "name": "from",
          "type": "address"
        },
        {
          "indexed": true,
          "internalType": "address",
          "name": "to",
          "type": "address"
        },
        {
          "indexed": true,
          "internalType": "uint256",
          "name": "tokenId",
          "type": "uint256"
        }
      ],
      "name": "Transfer",
      "type": "event"
    },
    {
      "inputs": [
        {
          "internalType": "address[]",
          "name": "_addresses",
          "type": "address[]"
        }
      ],
      "name": "addToAllowlist",
      "outputs": [],
      "stateMutability": "nonpayable",
      "type": "function"
    },
    {
      "inputs": [
        {
          "internalType": "address",
          "name": "",
          "type": "address"
        }
      ],
      "name": "allowlist",
      "outputs": [
        {
          "internalType": "bool",
          "name": "",
          "type": "bool"
        }
      ],
      "stateMutability": "view",
      "type": "function"
    },
    {
      "inputs": [
        {
          "internalType": "address",
          "name": "to",
          "type": "address"
        },
        {
          "internalType": "uint256",
          "name": "tokenId",
          "type": "uint256"
        }
      ],
      "name": "approve",
      "outputs": [],
      "stateMutability": "nonpayable",
      "type": "function"
    },
    {
      "inputs": [
        {
          "internalType": "address",
          "name": "owner",
          "type": "address"
        }
      ],
      "name": "balanceOf",
      "outputs": [
        {
          "internalType": "uint256",
          "name": "",
          "type": "uint256"
        }
      ],
      "stateMutability": "view",
      "type": "function"
    },
    {
      "inputs": [
        {
          "internalType": "address",
          "name": "_address",
          "type": "address"
        }
      ],
      "name": "collectorExistsFromAddress",
      "outputs": [
        {
          "internalType": "bool",
          "name": "",
          "type": "bool"
        }
      ],
      "stateMutability": "view",
      "type": "function"
    },
    {
      "inputs": [
        {
          "internalType": "uint256",
          "name": "",
          "type": "uint256"
        }
      ],
      "name": "collectors",
      "outputs": [
        {
          "internalType": "uint256",
          "name": "id",
          "type": "uint256"
        },
        {
          "internalType": "uint256",
          "name": "tokenId",
          "type": "uint256"
        },
        {
          "internalType": "string",
          "name": "name",
          "type": "string"
        },
        {
          "internalType": "string",
          "name": "email",
          "type": "string"
        },
        {
          "internalType": "string",
          "name": "addres",
          "type": "string"
        },
        {
          "internalType": "string",
          "name": "prompt",
          "type": "string"
        },
        {
          "internalType": "address",
          "name": "creatorAddress",
          "type": "address"
        },
        {
          "internalType": "address",
          "name": "collectorAddress",
          "type": "address"
        }
      ],
      "stateMutability": "view",
      "type": "function"
    },
    {
      "inputs": [
        {
          "internalType": "uint256",
          "name": "tokenId",
          "type": "uint256"
        }
      ],
      "name": "getApproved",
      "outputs": [
        {
          "internalType": "address",
          "name": "",
          "type": "address"
        }
      ],
      "stateMutability": "view",
      "type": "function"
    },
    {
      "inputs": [
        {
          "internalType": "address",
          "name": "_address",
          "type": "address"
        }
      ],
      "name": "getCollectorTokenIdFromAddress",
      "outputs": [
        {
          "internalType": "uint256",
          "name": "",
          "type": "uint256"
        }
      ],
      "stateMutability": "view",
      "type": "function"
    },
    {
      "inputs": [],
      "name": "getCollectors",
      "outputs": [
        {
          "components": [
            {
              "internalType": "uint256",
              "name": "id",
              "type": "uint256"
            },
            {
              "internalType": "uint256",
              "name": "tokenId",
              "type": "uint256"
            },
            {
              "internalType": "string",
              "name": "name",
              "type": "string"
            },
            {
              "internalType": "string",
              "name": "email",
              "type": "string"
            },
            {
              "internalType": "string",
              "name": "addres",
              "type": "string"
            },
            {
              "internalType": "string",
              "name": "prompt",
              "type": "string"
            },
            {
              "internalType": "address",
              "name": "creatorAddress",
              "type": "address"
            },
            {
              "internalType": "address",
              "name": "collectorAddress",
              "type": "address"
            }
          ],
          "internalType": "struct Finale.Collector[]",
          "name": "",
          "type": "tuple[]"
        }
      ],
      "stateMutability": "view",
      "type": "function"
    },
    {
      "inputs": [],
      "name": "getTotalSupply",
      "outputs": [
        {
          "internalType": "uint256",
          "name": "",
          "type": "uint256"
        }
      ],
      "stateMutability": "view",
      "type": "function"
    },
    {
      "inputs": [
        {
          "internalType": "address",
          "name": "_address",
          "type": "address"
        }
      ],
      "name": "isAllowed",
      "outputs": [
        {
          "internalType": "bool",
          "name": "",
          "type": "bool"
        }
      ],
      "stateMutability": "view",
      "type": "function"
    },
    {
      "inputs": [
        {
          "internalType": "address",
          "name": "owner",
          "type": "address"
        },
        {
          "internalType": "address",
          "name": "operator",
          "type": "address"
        }
      ],
      "name": "isApprovedForAll",
      "outputs": [
        {
          "internalType": "bool",
          "name": "",
          "type": "bool"
        }
      ],
      "stateMutability": "view",
      "type": "function"
    },
    {
      "inputs": [
        {
          "internalType": "address",
          "name": "recipient",
          "type": "address"
        },
        {
          "internalType": "string",
          "name": "tokenURI",
          "type": "string"
        },
        {
          "internalType": "string",
          "name": "name",
          "type": "string"
        },
        {
          "internalType": "string",
          "name": "email",
          "type": "string"
        },
        {
          "internalType": "string",
          "name": "shippingAddress",
          "type": "string"
        },
        {
          "internalType": "string",
          "name": "prompt",
          "type": "string"
        }
      ],
      "name": "mint",
      "outputs": [
        {
          "internalType": "uint256",
          "name": "",
          "type": "uint256"
        }
      ],
      "stateMutability": "payable",
      "type": "function"
    },
    {
      "inputs": [],
      "name": "name",
      "outputs": [
        {
          "internalType": "string",
          "name": "",
          "type": "string"
        }
      ],
      "stateMutability": "view",
      "type": "function"
    },
    {
      "inputs": [],
      "name": "owner",
      "outputs": [
        {
          "internalType": "address",
          "name": "",
          "type": "address"
        }
      ],
      "stateMutability": "view",
      "type": "function"
    },
    {
      "inputs": [
        {
          "internalType": "uint256",
          "name": "tokenId",
          "type": "uint256"
        }
      ],
      "name": "ownerOf",
      "outputs": [
        {
          "internalType": "address",
          "name": "",
          "type": "address"
        }
      ],
      "stateMutability": "view",
      "type": "function"
    },
    {
      "inputs": [
        {
          "internalType": "address[]",
          "name": "_addresses",
          "type": "address[]"
        }
      ],
      "name": "removeFromAllowlist",
      "outputs": [],
      "stateMutability": "nonpayable",
      "type": "function"
    },
    {
      "inputs": [
        {
          "internalType": "address",
          "name": "from",
          "type": "address"
        },
        {
          "internalType": "address",
          "name": "to",
          "type": "address"
        },
        {
          "internalType": "uint256",
          "name": "tokenId",
          "type": "uint256"
        }
      ],
      "name": "safeTransferFrom",
      "outputs": [],
      "stateMutability": "nonpayable",
      "type": "function"
    },
    {
      "inputs": [
        {
          "internalType": "address",
          "name": "from",
          "type": "address"
        },
        {
          "internalType": "address",
          "name": "to",
          "type": "address"
        },
        {
          "internalType": "uint256",
          "name": "tokenId",
          "type": "uint256"
        },
        {
          "internalType": "bytes",
          "name": "data",
          "type": "bytes"
        }
      ],
      "name": "safeTransferFrom",
      "outputs": [],
      "stateMutability": "nonpayable",
      "type": "function"
    },
    {
      "inputs": [
        {
          "internalType": "address",
          "name": "operator",
          "type": "address"
        },
        {
          "internalType": "bool",
          "name": "approved",
          "type": "bool"
        }
      ],
      "name": "setApprovalForAll",
      "outputs": [],
      "stateMutability": "nonpayable",
      "type": "function"
    },
    {
      "inputs": [
        {
          "internalType": "bytes4",
          "name": "interfaceId",
          "type": "bytes4"
        }
      ],
      "name": "supportsInterface",
      "outputs": [
        {
          "internalType": "bool",
          "name": "",
          "type": "bool"
        }
      ],
      "stateMutability": "view",
      "type": "function"
    },
    {
      "inputs": [],
      "name": "symbol",
      "outputs": [
        {
          "internalType": "string",
          "name": "",
          "type": "string"
        }
      ],
      "stateMutability": "view",
      "type": "function"
    },
    {
      "inputs": [
        {
          "internalType": "uint256",
          "name": "tokenId",
          "type": "uint256"
        }
      ],
      "name": "tokenURI",
      "outputs": [
        {
          "internalType": "string",
          "name": "",
          "type": "string"
        }
      ],
      "stateMutability": "view",
      "type": "function"
    },
    {
      "inputs": [
        {
          "internalType": "address",
          "name": "from",
          "type": "address"
        },
        {
          "internalType": "address",
          "name": "to",
          "type": "address"
        },
        {
          "internalType": "uint256",
          "name": "tokenId",
          "type": "uint256"
        }
      ],
      "name": "transferFrom",
      "outputs": [],
      "stateMutability": "nonpayable",
      "type": "function"
    }
  ],
  "bytecode": "0x60806040526651b660cdd58000600c553480156200001c57600080fd5b5060405162004b1b38038062004b1b8339818101604052810190620000429190620003a3565b6040518060400160405280600a81526020017f46696e616c65204e4654000000000000000000000000000000000000000000008152506040518060400160405280600681526020017f46696e616c6500000000000000000000000000000000000000000000000000008152508160009081620000bf91906200063f565b508060019081620000d191906200063f565b50505033600b60006101000a81548173ffffffffffffffffffffffffffffffffffffffff021916908373ffffffffffffffffffffffffffffffffffffffff16021790555060005b8151811015620001ad576001600960008484815181106200013e576200013d62000726565b5b602002602001015173ffffffffffffffffffffffffffffffffffffffff1673ffffffffffffffffffffffffffffffffffffffff16815260200190815260200160002060006101000a81548160ff0219169083151502179055508080620001a49062000784565b91505062000118565b5050620007d1565b6000604051905090565b600080fd5b600080fd5b600080fd5b6000601f19601f8301169050919050565b7f4e487b7100000000000000000000000000000000000000000000000000000000600052604160045260246000fd5b6200021982620001ce565b810181811067ffffffffffffffff821117156200023b576200023a620001df565b5b80604052505050565b600062000250620001b5565b90506200025e82826200020e565b919050565b600067ffffffffffffffff821115620002815762000280620001df565b5b602082029050602081019050919050565b600080fd5b600073ffffffffffffffffffffffffffffffffffffffff82169050919050565b6000620002c48262000297565b9050919050565b620002d681620002b7565b8114620002e257600080fd5b50565b600081519050620002f681620002cb565b92915050565b6000620003136200030d8462000263565b62000244565b9050808382526020820190506020840283018581111562000339576200033862000292565b5b835b81811015620003665780620003518882620002e5565b8452602084019350506020810190506200033b565b5050509392505050565b600082601f830112620003885762000387620001c9565b5b81516200039a848260208601620002fc565b91505092915050565b600060208284031215620003bc57620003bb620001bf565b5b600082015167ffffffffffffffff811115620003dd57620003dc620001c4565b5b620003eb8482850162000370565b91505092915050565b600081519050919050565b7f4e487b7100000000000000000000000000000000000000000000000000000000600052602260045260246000fd5b600060028204905060018216806200044757607f821691505b6020821081036200045d576200045c620003ff565b5b50919050565b60008190508160005260206000209050919050565b60006020601f8301049050919050565b600082821b905092915050565b600060088302620004c77fffffffffffffffffffffffffffffffffffffffffffffffffffffffffffffffff8262000488565b620004d3868362000488565b95508019841693508086168417925050509392505050565b6000819050919050565b6000819050919050565b6000620005206200051a6200051484620004eb565b620004f5565b620004eb565b9050919050565b6000819050919050565b6200053c83620004ff565b620005546200054b8262000527565b84845462000495565b825550505050565b600090565b6200056b6200055c565b6200057881848462000531565b505050565b5b81811015620005a0576200059460008262000561565b6001810190506200057e565b5050565b601f821115620005ef57620005b98162000463565b620005c48462000478565b81016020851015620005d4578190505b620005ec620005e38562000478565b8301826200057d565b50505b505050565b600082821c905092915050565b60006200061460001984600802620005f4565b1980831691505092915050565b60006200062f838362000601565b9150826002028217905092915050565b6200064a82620003f4565b67ffffffffffffffff811115620006665762000665620001df565b5b6200067282546200042e565b6200067f828285620005a4565b600060209050601f831160018114620006b75760008415620006a2578287015190505b620006ae858262000621565b8655506200071e565b601f198416620006c78662000463565b60005b82811015620006f157848901518255600182019150602085019450602081019050620006ca565b868310156200071157848901516200070d601f89168262000601565b8355505b6001600288020188555050505b505050505050565b7f4e487b7100000000000000000000000000000000000000000000000000000000600052603260045260246000fd5b7f4e487b7100000000000000000000000000000000000000000000000000000000600052601160045260246000fd5b60006200079182620004eb565b91507fffffffffffffffffffffffffffffffffffffffffffffffffffffffffffffffff8203620007c657620007c562000755565b5b600182019050919050565b61433a80620007e16000396000f3fe60806040526004361061014b5760003560e01c806395d89b41116100b6578063babcc5391161006f578063babcc539146104d2578063c4e41b221461050f578063c87b56dd1461053a578063cb03186814610577578063e985e9c5146105a2578063eb4c1c46146105df5761014b565b806395d89b4114610397578063a22cb465146103c2578063a7cd52cb146103eb578063b015aeb814610428578063b3e224b614610465578063b88d4fde146104a95761014b565b806323b872dd1161010857806323b872dd1461027757806342842e0e146102a05780635207c273146102c95780636352211e146102f257806370a082311461032f5780638da5cb5b1461036c5761014b565b806301ffc9a71461015057806306fdde031461018d578063081812fc146101b8578063095ea7b3146101f55780630d7c43f51461021e578063104b6cb71461024e575b600080fd5b34801561015c57600080fd5b5061017760048036038101906101729190612b06565b61061c565b6040516101849190612b4e565b60405180910390f35b34801561019957600080fd5b506101a26106fe565b6040516101af9190612bf9565b60405180910390f35b3480156101c457600080fd5b506101df60048036038101906101da9190612c51565b610790565b6040516101ec9190612cbf565b60405180910390f35b34801561020157600080fd5b5061021c60048036038101906102179190612d06565b6107d6565b005b61023860048036038101906102339190612e7b565b6108ed565b6040516102459190612fa3565b60405180910390f35b34801561025a57600080fd5b506102756004803603810190610270919061301e565b610c69565b005b34801561028357600080fd5b5061029e6004803603810190610299919061306b565b610d9e565b005b3480156102ac57600080fd5b506102c760048036038101906102c2919061306b565b610dfe565b005b3480156102d557600080fd5b506102f060048036038101906102eb919061301e565b610e1e565b005b3480156102fe57600080fd5b5061031960048036038101906103149190612c51565b610f53565b6040516103269190612cbf565b60405180910390f35b34801561033b57600080fd5b50610356600480360381019061035191906130be565b610fd9565b6040516103639190612fa3565b60405180910390f35b34801561037857600080fd5b50610381611090565b60405161038e9190612cbf565b60405180910390f35b3480156103a357600080fd5b506103ac6110b6565b6040516103b99190612bf9565b60405180910390f35b3480156103ce57600080fd5b506103e960048036038101906103e49190613117565b611148565b005b3480156103f757600080fd5b50610412600480360381019061040d91906130be565b61115e565b60405161041f9190612b4e565b60405180910390f35b34801561043457600080fd5b5061044f600480360381019061044a91906130be565b61117e565b60405161045c9190612b4e565b60405180910390f35b34801561047157600080fd5b5061048c60048036038101906104879190612c51565b611233565b6040516104a0989796959493929190613157565b60405180910390f35b3480156104b557600080fd5b506104d060048036038101906104cb9190613292565b6114eb565b005b3480156104de57600080fd5b506104f960048036038101906104f491906130be565b61154d565b6040516105069190612b4e565b60405180910390f35b34801561051b57600080fd5b506105246115a3565b6040516105319190612fa3565b60405180910390f35b34801561054657600080fd5b50610561600480360381019061055c9190612c51565b6115b4565b60405161056e9190612bf9565b60405180910390f35b34801561058357600080fd5b5061058c6115c6565b6040516105999190613504565b60405180910390f35b3480156105ae57600080fd5b506105c960048036038101906105c49190613526565b61192e565b6040516105d69190612b4e565b60405180910390f35b3480156105eb57600080fd5b50610606600480360381019061060191906130be565b6119c2565b6040516106139190612fa3565b60405180910390f35b60007f80ac58cd000000000000000000000000000000000000000000000000000000007bffffffffffffffffffffffffffffffffffffffffffffffffffffffff1916827bffffffffffffffffffffffffffffffffffffffffffffffffffffffff191614806106e757507f5b5e139f000000000000000000000000000000000000000000000000000000007bffffffffffffffffffffffffffffffffffffffffffffffffffffffff1916827bffffffffffffffffffffffffffffffffffffffffffffffffffffffff1916145b806106f757506106f682611a9b565b5b9050919050565b60606000805461070d90613595565b80601f016020809104026020016040519081016040528092919081815260200182805461073990613595565b80156107865780601f1061075b57610100808354040283529160200191610786565b820191906000526020600020905b81548152906001019060200180831161076957829003601f168201915b5050505050905090565b600061079b82611b05565b6004600083815260200190815260200160002060009054906101000a900473ffffffffffffffffffffffffffffffffffffffff169050919050565b60006107e182610f53565b90508073ffffffffffffffffffffffffffffffffffffffff168373ffffffffffffffffffffffffffffffffffffffff1603610851576040517f08c379a000000000000000000000000000000000000000000000000000000000815260040161084890613638565b60405180910390fd5b8073ffffffffffffffffffffffffffffffffffffffff16610870611b50565b73ffffffffffffffffffffffffffffffffffffffff16148061089f575061089e81610899611b50565b61192e565b5b6108de576040517f08c379a00000000000000000000000000000000000000000000000000000000081526004016108d5906136ca565b60405180910390fd5b6108e88383611b58565b505050565b6000600c54341015610934576040517f08c379a000000000000000000000000000000000000000000000000000000000815260040161092b9061375c565b60405180910390fd5b600960003373ffffffffffffffffffffffffffffffffffffffff1673ffffffffffffffffffffffffffffffffffffffff16815260200190815260200160002060009054906101000a900460ff166109c0576040517f08c379a00000000000000000000000000000000000000000000000000000000081526004016109b7906137c8565b60405180910390fd5b6001600a60003373ffffffffffffffffffffffffffffffffffffffff1673ffffffffffffffffffffffffffffffffffffffff1681526020019081526020016000205410610a42576040517f08c379a0000000000000000000000000000000000000000000000000000000008152600401610a3990613834565b60405180910390fd5b610a4c6007611c11565b6000610a586007611c27565b9050610a648882611c35565b610a6e8188611c53565b6000600880549050905060086040518061010001604052808381526020018481526020018981526020018881526020018781526020018681526020013373ffffffffffffffffffffffffffffffffffffffff1681526020018b73ffffffffffffffffffffffffffffffffffffffff16815250908060018154018082558091505060019003906000526020600020906008020160009091909190915060008201518160000155602082015181600101556040820151816002019081610b329190613a00565b506060820151816003019081610b489190613a00565b506080820151816004019081610b5e9190613a00565b5060a0820151816005019081610b749190613a00565b5060c08201518160060160006101000a81548173ffffffffffffffffffffffffffffffffffffffff021916908373ffffffffffffffffffffffffffffffffffffffff16021790555060e08201518160070160006101000a81548173ffffffffffffffffffffffffffffffffffffffff021916908373ffffffffffffffffffffffffffffffffffffffff1602179055505050600a60003373ffffffffffffffffffffffffffffffffffffffff1673ffffffffffffffffffffffffffffffffffffffff1681526020019081526020016000206000815480929190610c5590613b01565b919050555081925050509695505050505050565b600b60009054906101000a900473ffffffffffffffffffffffffffffffffffffffff1673ffffffffffffffffffffffffffffffffffffffff163373ffffffffffffffffffffffffffffffffffffffff1614610cf9576040517f08c379a0000000000000000000000000000000000000000000000000000000008152600401610cf090613bbb565b60405180910390fd5b60005b82829050811015610d9957600060096000858585818110610d2057610d1f613bdb565b5b9050602002016020810190610d3591906130be565b73ffffffffffffffffffffffffffffffffffffffff1673ffffffffffffffffffffffffffffffffffffffff16815260200190815260200160002060006101000a81548160ff0219169083151502179055508080610d9190613b01565b915050610cfc565b505050565b610daf610da9611b50565b82611cc0565b610dee576040517f08c379a0000000000000000000000000000000000000000000000000000000008152600401610de590613c7c565b60405180910390fd5b610df9838383611d55565b505050565b610e19838383604051806020016040528060008152506114eb565b505050565b600b60009054906101000a900473ffffffffffffffffffffffffffffffffffffffff1673ffffffffffffffffffffffffffffffffffffffff163373ffffffffffffffffffffffffffffffffffffffff1614610eae576040517f08c379a0000000000000000000000000000000000000000000000000000000008152600401610ea590613ce8565b60405180910390fd5b60005b82829050811015610f4e57600160096000858585818110610ed557610ed4613bdb565b5b9050602002016020810190610eea91906130be565b73ffffffffffffffffffffffffffffffffffffffff1673ffffffffffffffffffffffffffffffffffffffff16815260200190815260200160002060006101000a81548160ff0219169083151502179055508080610f4690613b01565b915050610eb1565b505050565b600080610f5f8361204e565b9050600073ffffffffffffffffffffffffffffffffffffffff168173ffffffffffffffffffffffffffffffffffffffff1603610fd0576040517f08c379a0000000000000000000000000000000000000000000000000000000008152600401610fc790613d54565b60405180910390fd5b80915050919050565b60008073ffffffffffffffffffffffffffffffffffffffff168273ffffffffffffffffffffffffffffffffffffffff1603611049576040517f08c379a000000000000000000000000000000000000000000000000000000000815260040161104090613de6565b60405180910390fd5b600360008373ffffffffffffffffffffffffffffffffffffffff1673ffffffffffffffffffffffffffffffffffffffff168152602001908152602001600020549050919050565b600b60009054906101000a900473ffffffffffffffffffffffffffffffffffffffff1681565b6060600180546110c590613595565b80601f01602080910402602001604051908101604052809291908181526020018280546110f190613595565b801561113e5780601f106111135761010080835404028352916020019161113e565b820191906000526020600020905b81548152906001019060200180831161112157829003601f168201915b5050505050905090565b61115a611153611b50565b838361208b565b5050565b60096020528060005260406000206000915054906101000a900460ff1681565b600080600090505b600880549050811015611228578273ffffffffffffffffffffffffffffffffffffffff16600882815481106111be576111bd613bdb565b5b906000526020600020906008020160070160009054906101000a900473ffffffffffffffffffffffffffffffffffffffff1673ffffffffffffffffffffffffffffffffffffffff160361121557600191505061122e565b808061122090613b01565b915050611186565b50600090505b919050565b6008818154811061124357600080fd5b906000526020600020906008020160009150905080600001549080600101549080600201805461127290613595565b80601f016020809104026020016040519081016040528092919081815260200182805461129e90613595565b80156112eb5780601f106112c0576101008083540402835291602001916112eb565b820191906000526020600020905b8154815290600101906020018083116112ce57829003601f168201915b50505050509080600301805461130090613595565b80601f016020809104026020016040519081016040528092919081815260200182805461132c90613595565b80156113795780601f1061134e57610100808354040283529160200191611379565b820191906000526020600020905b81548152906001019060200180831161135c57829003601f168201915b50505050509080600401805461138e90613595565b80601f01602080910402602001604051908101604052809291908181526020018280546113ba90613595565b80156114075780601f106113dc57610100808354040283529160200191611407565b820191906000526020600020905b8154815290600101906020018083116113ea57829003601f168201915b50505050509080600501805461141c90613595565b80601f016020809104026020016040519081016040528092919081815260200182805461144890613595565b80156114955780601f1061146a57610100808354040283529160200191611495565b820191906000526020600020905b81548152906001019060200180831161147857829003601f168201915b5050505050908060060160009054906101000a900473ffffffffffffffffffffffffffffffffffffffff16908060070160009054906101000a900473ffffffffffffffffffffffffffffffffffffffff16905088565b6114fc6114f6611b50565b83611cc0565b61153b576040517f08c379a000000000000000000000000000000000000000000000000000000000815260040161153290613c7c565b60405180910390fd5b611547848484846121f7565b50505050565b6000600960008373ffffffffffffffffffffffffffffffffffffffff1673ffffffffffffffffffffffffffffffffffffffff16815260200190815260200160002060009054906101000a900460ff169050919050565b60006115af6007611c27565b905090565b60606115bf82612253565b9050919050565b60606008805480602002602001604051908101604052809291908181526020016000905b82821015611925578382906000526020600020906008020160405180610100016040529081600082015481526020016001820154815260200160028201805461163290613595565b80601f016020809104026020016040519081016040528092919081815260200182805461165e90613595565b80156116ab5780601f10611680576101008083540402835291602001916116ab565b820191906000526020600020905b81548152906001019060200180831161168e57829003601f168201915b505050505081526020016003820180546116c490613595565b80601f01602080910402602001604051908101604052809291908181526020018280546116f090613595565b801561173d5780601f106117125761010080835404028352916020019161173d565b820191906000526020600020905b81548152906001019060200180831161172057829003601f168201915b5050505050815260200160048201805461175690613595565b80601f016020809104026020016040519081016040528092919081815260200182805461178290613595565b80156117cf5780601f106117a4576101008083540402835291602001916117cf565b820191906000526020600020905b8154815290600101906020018083116117b257829003601f168201915b505050505081526020016005820180546117e890613595565b80601f016020809104026020016040519081016040528092919081815260200182805461181490613595565b80156118615780601f1061183657610100808354040283529160200191611861565b820191906000526020600020905b81548152906001019060200180831161184457829003601f168201915b505050505081526020016006820160009054906101000a900473ffffffffffffffffffffffffffffffffffffffff1673ffffffffffffffffffffffffffffffffffffffff1673ffffffffffffffffffffffffffffffffffffffff1681526020016007820160009054906101000a900473ffffffffffffffffffffffffffffffffffffffff1673ffffffffffffffffffffffffffffffffffffffff1673ffffffffffffffffffffffffffffffffffffffff1681525050815260200190600101906115ea565b50505050905090565b6000600560008473ffffffffffffffffffffffffffffffffffffffff1673ffffffffffffffffffffffffffffffffffffffff16815260200190815260200160002060008373ffffffffffffffffffffffffffffffffffffffff1673ffffffffffffffffffffffffffffffffffffffff16815260200190815260200160002060009054906101000a900460ff16905092915050565b600080600090505b600880549050811015611a90578273ffffffffffffffffffffffffffffffffffffffff1660088281548110611a0257611a01613bdb565b5b906000526020600020906008020160070160009054906101000a900473ffffffffffffffffffffffffffffffffffffffff1673ffffffffffffffffffffffffffffffffffffffff1603611a7d5760088181548110611a6357611a62613bdb565b5b906000526020600020906008020160010154915050611a96565b8080611a8890613b01565b9150506119ca565b50600090505b919050565b60007f01ffc9a7000000000000000000000000000000000000000000000000000000007bffffffffffffffffffffffffffffffffffffffffffffffffffffffff1916827bffffffffffffffffffffffffffffffffffffffffffffffffffffffff1916149050919050565b611b0e81612365565b611b4d576040517f08c379a0000000000000000000000000000000000000000000000000000000008152600401611b4490613d54565b60405180910390fd5b50565b600033905090565b816004600083815260200190815260200160002060006101000a81548173ffffffffffffffffffffffffffffffffffffffff021916908373ffffffffffffffffffffffffffffffffffffffff160217905550808273ffffffffffffffffffffffffffffffffffffffff16611bcb83610f53565b73ffffffffffffffffffffffffffffffffffffffff167f8c5be1e5ebec7d5bd14f71427d1e84f3dd0314c0f7b2291e5b200ac8c7c3b92560405160405180910390a45050565b6001816000016000828254019250508190555050565b600081600001549050919050565b611c4f8282604051806020016040528060008152506123a6565b5050565b611c5c82612365565b611c9b576040517f08c379a0000000000000000000000000000000000000000000000000000000008152600401611c9290613e78565b60405180910390fd5b80600660008481526020019081526020016000209081611cbb9190613a00565b505050565b600080611ccc83610f53565b90508073ffffffffffffffffffffffffffffffffffffffff168473ffffffffffffffffffffffffffffffffffffffff161480611d0e5750611d0d818561192e565b5b80611d4c57508373ffffffffffffffffffffffffffffffffffffffff16611d3484610790565b73ffffffffffffffffffffffffffffffffffffffff16145b91505092915050565b8273ffffffffffffffffffffffffffffffffffffffff16611d7582610f53565b73ffffffffffffffffffffffffffffffffffffffff1614611dcb576040517f08c379a0000000000000000000000000000000000000000000000000000000008152600401611dc290613f0a565b60405180910390fd5b600073ffffffffffffffffffffffffffffffffffffffff168273ffffffffffffffffffffffffffffffffffffffff1603611e3a576040517f08c379a0000000000000000000000000000000000000000000000000000000008152600401611e3190613f9c565b60405180910390fd5b611e478383836001612401565b8273ffffffffffffffffffffffffffffffffffffffff16611e6782610f53565b73ffffffffffffffffffffffffffffffffffffffff1614611ebd576040517f08c379a0000000000000000000000000000000000000000000000000000000008152600401611eb490613f0a565b60405180910390fd5b6004600082815260200190815260200160002060006101000a81549073ffffffffffffffffffffffffffffffffffffffff02191690556001600360008573ffffffffffffffffffffffffffffffffffffffff1673ffffffffffffffffffffffffffffffffffffffff168152602001908152602001600020600082825403925050819055506001600360008473ffffffffffffffffffffffffffffffffffffffff1673ffffffffffffffffffffffffffffffffffffffff16815260200190815260200160002060008282540192505081905550816002600083815260200190815260200160002060006101000a81548173ffffffffffffffffffffffffffffffffffffffff021916908373ffffffffffffffffffffffffffffffffffffffff160217905550808273ffffffffffffffffffffffffffffffffffffffff168473ffffffffffffffffffffffffffffffffffffffff167fddf252ad1be2c89b69c2b068fc378daa952ba7f163c4a11628f55a4df523b3ef60405160405180910390a46120498383836001612407565b505050565b60006002600083815260200190815260200160002060009054906101000a900473ffffffffffffffffffffffffffffffffffffffff169050919050565b8173ffffffffffffffffffffffffffffffffffffffff168373ffffffffffffffffffffffffffffffffffffffff16036120f9576040517f08c379a00000000000000000000000000000000000000000000000000000000081526004016120f090614008565b60405180910390fd5b80600560008573ffffffffffffffffffffffffffffffffffffffff1673ffffffffffffffffffffffffffffffffffffffff16815260200190815260200160002060008473ffffffffffffffffffffffffffffffffffffffff1673ffffffffffffffffffffffffffffffffffffffff16815260200190815260200160002060006101000a81548160ff0219169083151502179055508173ffffffffffffffffffffffffffffffffffffffff168373ffffffffffffffffffffffffffffffffffffffff167f17307eab39ab6107e8899845ad3d59bd9653f200f220920489ca2b5937696c31836040516121ea9190612b4e565b60405180910390a3505050565b612202848484611d55565b61220e8484848461240d565b61224d576040517f08c379a00000000000000000000000000000000000000000000000000000000081526004016122449061409a565b60405180910390fd5b50505050565b606061225e82611b05565b600060066000848152602001908152602001600020805461227e90613595565b80601f01602080910402602001604051908101604052809291908181526020018280546122aa90613595565b80156122f75780601f106122cc576101008083540402835291602001916122f7565b820191906000526020600020905b8154815290600101906020018083116122da57829003601f168201915b505050505090506000612308612594565b9050600081510361231d578192505050612360565b60008251111561235257808260405160200161233a9291906140f6565b60405160208183030381529060405292505050612360565b61235b846125d1565b925050505b919050565b60008073ffffffffffffffffffffffffffffffffffffffff166123878361204e565b73ffffffffffffffffffffffffffffffffffffffff1614159050919050565b6123b08383612639565b6123bd600084848461240d565b6123fc576040517f08c379a00000000000000000000000000000000000000000000000000000000081526004016123f39061409a565b60405180910390fd5b505050565b50505050565b50505050565b600061242e8473ffffffffffffffffffffffffffffffffffffffff16612856565b15612587578373ffffffffffffffffffffffffffffffffffffffff1663150b7a02612457611b50565b8786866040518563ffffffff1660e01b8152600401612479949392919061416f565b6020604051808303816000875af19250505080156124b557506040513d601f19601f820116820180604052508101906124b291906141d0565b60015b612537573d80600081146124e5576040519150601f19603f3d011682016040523d82523d6000602084013e6124ea565b606091505b50600081510361252f576040517f08c379a00000000000000000000000000000000000000000000000000000000081526004016125269061409a565b60405180910390fd5b805181602001fd5b63150b7a0260e01b7bffffffffffffffffffffffffffffffffffffffffffffffffffffffff1916817bffffffffffffffffffffffffffffffffffffffffffffffffffffffff19161491505061258c565b600190505b949350505050565b60606040518060400160405280601581526020017f68747470733a2f2f697066732e696f2f697066732f0000000000000000000000815250905090565b60606125dc82611b05565b60006125e6612594565b905060008151116126065760405180602001604052806000815250612631565b8061261084612879565b6040516020016126219291906140f6565b6040516020818303038152906040525b915050919050565b600073ffffffffffffffffffffffffffffffffffffffff168273ffffffffffffffffffffffffffffffffffffffff16036126a8576040517f08c379a000000000000000000000000000000000000000000000000000000000815260040161269f90614249565b60405180910390fd5b6126b181612365565b156126f1576040517f08c379a00000000000000000000000000000000000000000000000000000000081526004016126e8906142b5565b60405180910390fd5b6126ff600083836001612401565b61270881612365565b15612748576040517f08c379a000000000000000000000000000000000000000000000000000000000815260040161273f906142b5565b60405180910390fd5b6001600360008473ffffffffffffffffffffffffffffffffffffffff1673ffffffffffffffffffffffffffffffffffffffff16815260200190815260200160002060008282540192505081905550816002600083815260200190815260200160002060006101000a81548173ffffffffffffffffffffffffffffffffffffffff021916908373ffffffffffffffffffffffffffffffffffffffff160217905550808273ffffffffffffffffffffffffffffffffffffffff16600073ffffffffffffffffffffffffffffffffffffffff167fddf252ad1be2c89b69c2b068fc378daa952ba7f163c4a11628f55a4df523b3ef60405160405180910390a4612852600083836001612407565b5050565b6000808273ffffffffffffffffffffffffffffffffffffffff163b119050919050565b60606000600161288884612947565b01905060008167ffffffffffffffff8111156128a7576128a6612d50565b5b6040519080825280601f01601f1916602001820160405280156128d95781602001600182028036833780820191505090505b509050600082602001820190505b60011561293c578080600190039150507f3031323334353637383961626364656600000000000000000000000000000000600a86061a8153600a85816129305761292f6142d5565b5b049450600085036128e7575b819350505050919050565b600080600090507a184f03e93ff9f4daa797ed6e38ed64bf6a1f01000000000000000083106129a5577a184f03e93ff9f4daa797ed6e38ed64bf6a1f010000000000000000838161299b5761299a6142d5565b5b0492506040810190505b6d04ee2d6d415b85acef810000000083106129e2576d04ee2d6d415b85acef810000000083816129d8576129d76142d5565b5b0492506020810190505b662386f26fc100008310612a1157662386f26fc100008381612a0757612a066142d5565b5b0492506010810190505b6305f5e1008310612a3a576305f5e1008381612a3057612a2f6142d5565b5b0492506008810190505b6127108310612a5f576127108381612a5557612a546142d5565b5b0492506004810190505b60648310612a825760648381612a7857612a776142d5565b5b0492506002810190505b600a8310612a91576001810190505b80915050919050565b6000604051905090565b600080fd5b600080fd5b60007fffffffff0000000000000000000000000000000000000000000000000000000082169050919050565b612ae381612aae565b8114612aee57600080fd5b50565b600081359050612b0081612ada565b92915050565b600060208284031215612b1c57612b1b612aa4565b5b6000612b2a84828501612af1565b91505092915050565b60008115159050919050565b612b4881612b33565b82525050565b6000602082019050612b636000830184612b3f565b92915050565b600081519050919050565b600082825260208201905092915050565b60005b83811015612ba3578082015181840152602081019050612b88565b60008484015250505050565b6000601f19601f8301169050919050565b6000612bcb82612b69565b612bd58185612b74565b9350612be5818560208601612b85565b612bee81612baf565b840191505092915050565b60006020820190508181036000830152612c138184612bc0565b905092915050565b6000819050919050565b612c2e81612c1b565b8114612c3957600080fd5b50565b600081359050612c4b81612c25565b92915050565b600060208284031215612c6757612c66612aa4565b5b6000612c7584828501612c3c565b91505092915050565b600073ffffffffffffffffffffffffffffffffffffffff82169050919050565b6000612ca982612c7e565b9050919050565b612cb981612c9e565b82525050565b6000602082019050612cd46000830184612cb0565b92915050565b612ce381612c9e565b8114612cee57600080fd5b50565b600081359050612d0081612cda565b92915050565b60008060408385031215612d1d57612d1c612aa4565b5b6000612d2b85828601612cf1565b9250506020612d3c85828601612c3c565b9150509250929050565b600080fd5b600080fd5b7f4e487b7100000000000000000000000000000000000000000000000000000000600052604160045260246000fd5b612d8882612baf565b810181811067ffffffffffffffff82111715612da757612da6612d50565b5b80604052505050565b6000612dba612a9a565b9050612dc68282612d7f565b919050565b600067ffffffffffffffff821115612de657612de5612d50565b5b612def82612baf565b9050602081019050919050565b82818337600083830152505050565b6000612e1e612e1984612dcb565b612db0565b905082815260208101848484011115612e3a57612e39612d4b565b5b612e45848285612dfc565b509392505050565b600082601f830112612e6257612e61612d46565b5b8135612e72848260208601612e0b565b91505092915050565b60008060008060008060c08789031215612e9857612e97612aa4565b5b6000612ea689828a01612cf1565b965050602087013567ffffffffffffffff811115612ec757612ec6612aa9565b5b612ed389828a01612e4d565b955050604087013567ffffffffffffffff811115612ef457612ef3612aa9565b5b612f0089828a01612e4d565b945050606087013567ffffffffffffffff811115612f2157612f20612aa9565b5b612f2d89828a01612e4d565b935050608087013567ffffffffffffffff811115612f4e57612f4d612aa9565b5b612f5a89828a01612e4d565b92505060a087013567ffffffffffffffff811115612f7b57612f7a612aa9565b5b612f8789828a01612e4d565b9150509295509295509295565b612f9d81612c1b565b82525050565b6000602082019050612fb86000830184612f94565b92915050565b600080fd5b600080fd5b60008083601f840112612fde57612fdd612d46565b5b8235905067ffffffffffffffff811115612ffb57612ffa612fbe565b5b60208301915083602082028301111561301757613016612fc3565b5b9250929050565b6000806020838503121561303557613034612aa4565b5b600083013567ffffffffffffffff81111561305357613052612aa9565b5b61305f85828601612fc8565b92509250509250929050565b60008060006060848603121561308457613083612aa4565b5b600061309286828701612cf1565b93505060206130a386828701612cf1565b92505060406130b486828701612c3c565b9150509250925092565b6000602082840312156130d4576130d3612aa4565b5b60006130e284828501612cf1565b91505092915050565b6130f481612b33565b81146130ff57600080fd5b50565b600081359050613111816130eb565b92915050565b6000806040838503121561312e5761312d612aa4565b5b600061313c85828601612cf1565b925050602061314d85828601613102565b9150509250929050565b60006101008201905061316d600083018b612f94565b61317a602083018a612f94565b818103604083015261318c8189612bc0565b905081810360608301526131a08188612bc0565b905081810360808301526131b48187612bc0565b905081810360a08301526131c88186612bc0565b90506131d760c0830185612cb0565b6131e460e0830184612cb0565b9998505050505050505050565b600067ffffffffffffffff82111561320c5761320b612d50565b5b61321582612baf565b9050602081019050919050565b6000613235613230846131f1565b612db0565b90508281526020810184848401111561325157613250612d4b565b5b61325c848285612dfc565b509392505050565b600082601f83011261327957613278612d46565b5b8135613289848260208601613222565b91505092915050565b600080600080608085870312156132ac576132ab612aa4565b5b60006132ba87828801612cf1565b94505060206132cb87828801612cf1565b93505060406132dc87828801612c3c565b925050606085013567ffffffffffffffff8111156132fd576132fc612aa9565b5b61330987828801613264565b91505092959194509250565b600081519050919050565b600082825260208201905092915050565b6000819050602082019050919050565b61334a81612c1b565b82525050565b600082825260208201905092915050565b600061336c82612b69565b6133768185613350565b9350613386818560208601612b85565b61338f81612baf565b840191505092915050565b6133a381612c9e565b82525050565b6000610100830160008301516133c26000860182613341565b5060208301516133d56020860182613341565b50604083015184820360408601526133ed8282613361565b915050606083015184820360608601526134078282613361565b915050608083015184820360808601526134218282613361565b91505060a083015184820360a086015261343b8282613361565b91505060c083015161345060c086018261339a565b5060e083015161346360e086018261339a565b508091505092915050565b600061347a83836133a9565b905092915050565b6000602082019050919050565b600061349a82613315565b6134a48185613320565b9350836020820285016134b685613331565b8060005b858110156134f257848403895281516134d3858261346e565b94506134de83613482565b925060208a019950506001810190506134ba565b50829750879550505050505092915050565b6000602082019050818103600083015261351e818461348f565b905092915050565b6000806040838503121561353d5761353c612aa4565b5b600061354b85828601612cf1565b925050602061355c85828601612cf1565b9150509250929050565b7f4e487b7100000000000000000000000000000000000000000000000000000000600052602260045260246000fd5b600060028204905060018216806135ad57607f821691505b6020821081036135c0576135bf613566565b5b50919050565b7f4552433732313a20617070726f76616c20746f2063757272656e74206f776e6560008201527f7200000000000000000000000000000000000000000000000000000000000000602082015250565b6000613622602183612b74565b915061362d826135c6565b604082019050919050565b6000602082019050818103600083015261365181613615565b9050919050565b7f4552433732313a20617070726f76652063616c6c6572206973206e6f7420746f60008201527f6b656e206f776e6572206f7220617070726f76656420666f7220616c6c000000602082015250565b60006136b4603d83612b74565b91506136bf82613658565b604082019050919050565b600060208201905081810360008301526136e3816136a7565b9050919050565b7f4e6f7420656e6f756768204554482073656e743b20636865636b20707269636560008201527f2100000000000000000000000000000000000000000000000000000000000000602082015250565b6000613746602183612b74565b9150613751826136ea565b604082019050919050565b6000602082019050818103600083015261377581613739565b9050919050565b7f41646472657373206e6f74206f6e20616c6c6f776c6973740000000000000000600082015250565b60006137b2601883612b74565b91506137bd8261377c565b602082019050919050565b600060208201905081810360008301526137e1816137a5565b9050919050565b7f4d6178696d756d206d696e742070657220616464726573732072656163686564600082015250565b600061381e602083612b74565b9150613829826137e8565b602082019050919050565b6000602082019050818103600083015261384d81613811565b9050919050565b60008190508160005260206000209050919050565b60006020601f8301049050919050565b600082821b905092915050565b6000600883026138b67fffffffffffffffffffffffffffffffffffffffffffffffffffffffffffffffff82613879565b6138c08683613879565b95508019841693508086168417925050509392505050565b6000819050919050565b60006138fd6138f86138f384612c1b565b6138d8565b612c1b565b9050919050565b6000819050919050565b613917836138e2565b61392b61392382613904565b848454613886565b825550505050565b600090565b613940613933565b61394b81848461390e565b505050565b5b8181101561396f57613964600082613938565b600181019050613951565b5050565b601f8211156139b45761398581613854565b61398e84613869565b8101602085101561399d578190505b6139b16139a985613869565b830182613950565b50505b505050565b600082821c905092915050565b60006139d7600019846008026139b9565b1980831691505092915050565b60006139f083836139c6565b9150826002028217905092915050565b613a0982612b69565b67ffffffffffffffff811115613a2257613a21612d50565b5b613a2c8254613595565b613a37828285613973565b600060209050601f831160018114613a6a5760008415613a58578287015190505b613a6285826139e4565b865550613aca565b601f198416613a7886613854565b60005b82811015613aa057848901518255600182019150602085019450602081019050613a7b565b86831015613abd5784890151613ab9601f8916826139c6565b8355505b6001600288020188555050505b505050505050565b7f4e487b7100000000000000000000000000000000000000000000000000000000600052601160045260246000fd5b6000613b0c82612c1b565b91507fffffffffffffffffffffffffffffffffffffffffffffffffffffffffffffffff8203613b3e57613b3d613ad2565b5b600182019050919050565b7f4f6e6c79206f776e65722063616e2072656d6f76652066726f6d20616c6c6f7760008201527f6c69737400000000000000000000000000000000000000000000000000000000602082015250565b6000613ba5602483612b74565b9150613bb082613b49565b604082019050919050565b60006020820190508181036000830152613bd481613b98565b9050919050565b7f4e487b7100000000000000000000000000000000000000000000000000000000600052603260045260246000fd5b7f4552433732313a2063616c6c6572206973206e6f7420746f6b656e206f776e6560008201527f72206f7220617070726f76656400000000000000000000000000000000000000602082015250565b6000613c66602d83612b74565b9150613c7182613c0a565b604082019050919050565b60006020820190508181036000830152613c9581613c59565b9050919050565b7f4f6e6c79206f776e65722063616e2061646420746f20616c6c6f776c69737400600082015250565b6000613cd2601f83612b74565b9150613cdd82613c9c565b602082019050919050565b60006020820190508181036000830152613d0181613cc5565b9050919050565b7f4552433732313a20696e76616c696420746f6b656e2049440000000000000000600082015250565b6000613d3e601883612b74565b9150613d4982613d08565b602082019050919050565b60006020820190508181036000830152613d6d81613d31565b9050919050565b7f4552433732313a2061646472657373207a65726f206973206e6f74206120766160008201527f6c6964206f776e65720000000000000000000000000000000000000000000000602082015250565b6000613dd0602983612b74565b9150613ddb82613d74565b604082019050919050565b60006020820190508181036000830152613dff81613dc3565b9050919050565b7f45524337323155524953746f726167653a2055524920736574206f66206e6f6e60008201527f6578697374656e7420746f6b656e000000000000000000000000000000000000602082015250565b6000613e62602e83612b74565b9150613e6d82613e06565b604082019050919050565b60006020820190508181036000830152613e9181613e55565b9050919050565b7f4552433732313a207472616e736665722066726f6d20696e636f72726563742060008201527f6f776e6572000000000000000000000000000000000000000000000000000000602082015250565b6000613ef4602583612b74565b9150613eff82613e98565b604082019050919050565b60006020820190508181036000830152613f2381613ee7565b9050919050565b7f4552433732313a207472616e7366657220746f20746865207a65726f2061646460008201527f7265737300000000000000000000000000000000000000000000000000000000602082015250565b6000613f86602483612b74565b9150613f9182613f2a565b604082019050919050565b60006020820190508181036000830152613fb581613f79565b9050919050565b7f4552433732313a20617070726f766520746f2063616c6c657200000000000000600082015250565b6000613ff2601983612b74565b9150613ffd82613fbc565b602082019050919050565b6000602082019050818103600083015261402181613fe5565b9050919050565b7f4552433732313a207472616e7366657220746f206e6f6e20455243373231526560008201527f63656976657220696d706c656d656e7465720000000000000000000000000000602082015250565b6000614084603283612b74565b915061408f82614028565b604082019050919050565b600060208201905081810360008301526140b381614077565b9050919050565b600081905092915050565b60006140d082612b69565b6140da81856140ba565b93506140ea818560208601612b85565b80840191505092915050565b600061410282856140c5565b915061410e82846140c5565b91508190509392505050565b600081519050919050565b600082825260208201905092915050565b60006141418261411a565b61414b8185614125565b935061415b818560208601612b85565b61416481612baf565b840191505092915050565b60006080820190506141846000830187612cb0565b6141916020830186612cb0565b61419e6040830185612f94565b81810360608301526141b08184614136565b905095945050505050565b6000815190506141ca81612ada565b92915050565b6000602082840312156141e6576141e5612aa4565b5b60006141f4848285016141bb565b91505092915050565b7f4552433732313a206d696e7420746f20746865207a65726f2061646472657373600082015250565b6000614233602083612b74565b915061423e826141fd565b602082019050919050565b6000602082019050818103600083015261426281614226565b9050919050565b7f4552433732313a20746f6b656e20616c7265616479206d696e74656400000000600082015250565b600061429f601c83612b74565b91506142aa82614269565b602082019050919050565b600060208201905081810360008301526142ce81614292565b9050919050565b7f4e487b7100000000000000000000000000000000000000000000000000000000600052601260045260246000fdfea2646970667358221220a71a359b245555407c736e3e8f673c69f1c43c0893099b437f1e661906a646d964736f6c63430008110033",
  "linkReferences": {},
  "deployedLinkReferences": {}
}