{
  "_format": "hh-sol-artifact-1",
  "contractName": "Finale",
  "sourceName": "contracts/Finale.sol",
  "abi": [
    {
      "inputs": [
        {
          "internalType": "address[]",
          "name": "_addresses",
          "type": "address[]"
        }
      ],
      "stateMutability": "nonpayable",
      "type": "constructor"
    },
    {
      "anonymous": false,
      "inputs": [
        {
          "indexed": true,
          "internalType": "address",
          "name": "owner",
          "type": "address"
        },
        {
          "indexed": true,
          "internalType": "address",
          "name": "approved",
          "type": "address"
        },
        {
          "indexed": true,
          "internalType": "uint256",
          "name": "tokenId",
          "type": "uint256"
        }
      ],
      "name": "Approval",
      "type": "event"
    },
    {
      "anonymous": false,
      "inputs": [
        {
          "indexed": true,
          "internalType": "address",
          "name": "owner",
          "type": "address"
        },
        {
          "indexed": true,
          "internalType": "address",
          "name": "operator",
          "type": "address"
        },
        {
          "indexed": false,
          "internalType": "bool",
          "name": "approved",
          "type": "bool"
        }
      ],
      "name": "ApprovalForAll",
      "type": "event"
    },
    {
      "anonymous": false,
      "inputs": [
        {
          "indexed": true,
          "internalType": "address",
          "name": "from",
          "type": "address"
        },
        {
          "indexed": true,
          "internalType": "address",
          "name": "to",
          "type": "address"
        },
        {
          "indexed": true,
          "internalType": "uint256",
          "name": "tokenId",
          "type": "uint256"
        }
      ],
      "name": "Transfer",
      "type": "event"
    },
    {
      "inputs": [
        {
          "internalType": "address[]",
          "name": "_addresses",
          "type": "address[]"
        }
      ],
      "name": "addToAllowlist",
      "outputs": [],
      "stateMutability": "nonpayable",
      "type": "function"
    },
    {
      "inputs": [
        {
          "internalType": "address",
          "name": "",
          "type": "address"
        }
      ],
      "name": "allowlist",
      "outputs": [
        {
          "internalType": "bool",
          "name": "",
          "type": "bool"
        }
      ],
      "stateMutability": "view",
      "type": "function"
    },
    {
      "inputs": [
        {
          "internalType": "address",
          "name": "to",
          "type": "address"
        },
        {
          "internalType": "uint256",
          "name": "tokenId",
          "type": "uint256"
        }
      ],
      "name": "approve",
      "outputs": [],
      "stateMutability": "nonpayable",
      "type": "function"
    },
    {
      "inputs": [
        {
          "internalType": "address",
          "name": "owner",
          "type": "address"
        }
      ],
      "name": "balanceOf",
      "outputs": [
        {
          "internalType": "uint256",
          "name": "",
          "type": "uint256"
        }
      ],
      "stateMutability": "view",
      "type": "function"
    },
    {
      "inputs": [
        {
          "internalType": "address",
          "name": "_address",
          "type": "address"
        }
      ],
      "name": "collectorExistsFromAddress",
      "outputs": [
        {
          "internalType": "bool",
          "name": "",
          "type": "bool"
        }
      ],
      "stateMutability": "view",
      "type": "function"
    },
    {
      "inputs": [
        {
          "internalType": "uint256",
          "name": "",
          "type": "uint256"
        }
      ],
      "name": "collectors",
      "outputs": [
        {
          "internalType": "uint256",
          "name": "tokenId",
          "type": "uint256"
        },
        {
          "internalType": "string",
          "name": "name",
          "type": "string"
        },
        {
          "internalType": "string",
          "name": "email",
          "type": "string"
        },
        {
          "internalType": "string",
          "name": "addres",
          "type": "string"
        },
        {
          "internalType": "string",
          "name": "items",
          "type": "string"
        },
        {
          "internalType": "address",
          "name": "collectorAddress",
          "type": "address"
        }
      ],
      "stateMutability": "view",
      "type": "function"
    },
    {
      "inputs": [
        {
          "internalType": "uint256",
          "name": "tokenId",
          "type": "uint256"
        }
      ],
      "name": "getApproved",
      "outputs": [
        {
          "internalType": "address",
          "name": "",
          "type": "address"
        }
      ],
      "stateMutability": "view",
      "type": "function"
    },
    {
      "inputs": [
        {
          "internalType": "address",
          "name": "_address",
          "type": "address"
        }
      ],
      "name": "getCollectorTokenIdFromAddress",
      "outputs": [
        {
          "internalType": "uint256",
          "name": "",
          "type": "uint256"
        }
      ],
      "stateMutability": "view",
      "type": "function"
    },
    {
      "inputs": [],
      "name": "getCollectors",
      "outputs": [
        {
          "components": [
            {
              "internalType": "uint256",
              "name": "tokenId",
              "type": "uint256"
            },
            {
              "internalType": "string",
              "name": "name",
              "type": "string"
            },
            {
              "internalType": "string",
              "name": "email",
              "type": "string"
            },
            {
              "internalType": "string",
              "name": "addres",
              "type": "string"
            },
            {
              "internalType": "string",
              "name": "items",
              "type": "string"
            },
            {
              "internalType": "address",
              "name": "collectorAddress",
              "type": "address"
            }
          ],
          "internalType": "struct Finale.Collector[]",
          "name": "",
          "type": "tuple[]"
        }
      ],
      "stateMutability": "view",
      "type": "function"
    },
    {
      "inputs": [],
      "name": "getTotalSupply",
      "outputs": [
        {
          "internalType": "uint256",
          "name": "",
          "type": "uint256"
        }
      ],
      "stateMutability": "view",
      "type": "function"
    },
    {
      "inputs": [
        {
          "internalType": "address",
          "name": "_address",
          "type": "address"
        }
      ],
      "name": "isAllowed",
      "outputs": [
        {
          "internalType": "bool",
          "name": "",
          "type": "bool"
        }
      ],
      "stateMutability": "view",
      "type": "function"
    },
    {
      "inputs": [
        {
          "internalType": "address",
          "name": "owner",
          "type": "address"
        },
        {
          "internalType": "address",
          "name": "operator",
          "type": "address"
        }
      ],
      "name": "isApprovedForAll",
      "outputs": [
        {
          "internalType": "bool",
          "name": "",
          "type": "bool"
        }
      ],
      "stateMutability": "view",
      "type": "function"
    },
    {
      "inputs": [
        {
          "internalType": "address",
          "name": "recipient",
          "type": "address"
        },
        {
          "internalType": "string",
          "name": "tokenURI",
          "type": "string"
        },
        {
          "internalType": "string",
          "name": "name",
          "type": "string"
        },
        {
          "internalType": "string",
          "name": "email",
          "type": "string"
        },
        {
          "internalType": "string",
          "name": "shippingAddress",
          "type": "string"
        },
        {
          "internalType": "string",
          "name": "items",
          "type": "string"
        }
      ],
      "name": "mint",
      "outputs": [
        {
          "internalType": "uint256",
          "name": "",
          "type": "uint256"
        }
      ],
      "stateMutability": "payable",
      "type": "function"
    },
    {
      "inputs": [],
      "name": "name",
      "outputs": [
        {
          "internalType": "string",
          "name": "",
          "type": "string"
        }
      ],
      "stateMutability": "view",
      "type": "function"
    },
    {
      "inputs": [],
      "name": "owner",
      "outputs": [
        {
          "internalType": "address",
          "name": "",
          "type": "address"
        }
      ],
      "stateMutability": "view",
      "type": "function"
    },
    {
      "inputs": [
        {
          "internalType": "uint256",
          "name": "tokenId",
          "type": "uint256"
        }
      ],
      "name": "ownerOf",
      "outputs": [
        {
          "internalType": "address",
          "name": "",
          "type": "address"
        }
      ],
      "stateMutability": "view",
      "type": "function"
    },
    {
      "inputs": [
        {
          "internalType": "address[]",
          "name": "_addresses",
          "type": "address[]"
        }
      ],
      "name": "removeFromAllowlist",
      "outputs": [],
      "stateMutability": "nonpayable",
      "type": "function"
    },
    {
      "inputs": [
        {
          "internalType": "address",
          "name": "from",
          "type": "address"
        },
        {
          "internalType": "address",
          "name": "to",
          "type": "address"
        },
        {
          "internalType": "uint256",
          "name": "tokenId",
          "type": "uint256"
        }
      ],
      "name": "safeTransferFrom",
      "outputs": [],
      "stateMutability": "nonpayable",
      "type": "function"
    },
    {
      "inputs": [
        {
          "internalType": "address",
          "name": "from",
          "type": "address"
        },
        {
          "internalType": "address",
          "name": "to",
          "type": "address"
        },
        {
          "internalType": "uint256",
          "name": "tokenId",
          "type": "uint256"
        },
        {
          "internalType": "bytes",
          "name": "data",
          "type": "bytes"
        }
      ],
      "name": "safeTransferFrom",
      "outputs": [],
      "stateMutability": "nonpayable",
      "type": "function"
    },
    {
      "inputs": [
        {
          "internalType": "address",
          "name": "operator",
          "type": "address"
        },
        {
          "internalType": "bool",
          "name": "approved",
          "type": "bool"
        }
      ],
      "name": "setApprovalForAll",
      "outputs": [],
      "stateMutability": "nonpayable",
      "type": "function"
    },
    {
      "inputs": [
        {
          "internalType": "bytes4",
          "name": "interfaceId",
          "type": "bytes4"
        }
      ],
      "name": "supportsInterface",
      "outputs": [
        {
          "internalType": "bool",
          "name": "",
          "type": "bool"
        }
      ],
      "stateMutability": "view",
      "type": "function"
    },
    {
      "inputs": [],
      "name": "symbol",
      "outputs": [
        {
          "internalType": "string",
          "name": "",
          "type": "string"
        }
      ],
      "stateMutability": "view",
      "type": "function"
    },
    {
      "inputs": [
        {
          "internalType": "uint256",
          "name": "tokenId",
          "type": "uint256"
        }
      ],
      "name": "tokenURI",
      "outputs": [
        {
          "internalType": "string",
          "name": "",
          "type": "string"
        }
      ],
      "stateMutability": "view",
      "type": "function"
    },
    {
      "inputs": [
        {
          "internalType": "address",
          "name": "from",
          "type": "address"
        },
        {
          "internalType": "address",
          "name": "to",
          "type": "address"
        },
        {
          "internalType": "uint256",
          "name": "tokenId",
          "type": "uint256"
        }
      ],
      "name": "transferFrom",
      "outputs": [],
      "stateMutability": "nonpayable",
      "type": "function"
    }
  ],
  "bytecode": "0x60806040526651b660cdd58000600c553480156200001c57600080fd5b50604051620049c9380380620049c98339818101604052810190620000429190620003a3565b6040518060400160405280600a81526020017f46696e616c65204e4654000000000000000000000000000000000000000000008152506040518060400160405280600681526020017f46696e616c6500000000000000000000000000000000000000000000000000008152508160009081620000bf91906200063f565b508060019081620000d191906200063f565b50505033600b60006101000a81548173ffffffffffffffffffffffffffffffffffffffff021916908373ffffffffffffffffffffffffffffffffffffffff16021790555060005b8151811015620001ad576001600960008484815181106200013e576200013d62000726565b5b602002602001015173ffffffffffffffffffffffffffffffffffffffff1673ffffffffffffffffffffffffffffffffffffffff16815260200190815260200160002060006101000a81548160ff0219169083151502179055508080620001a49062000784565b91505062000118565b5050620007d1565b6000604051905090565b600080fd5b600080fd5b600080fd5b6000601f19601f8301169050919050565b7f4e487b7100000000000000000000000000000000000000000000000000000000600052604160045260246000fd5b6200021982620001ce565b810181811067ffffffffffffffff821117156200023b576200023a620001df565b5b80604052505050565b600062000250620001b5565b90506200025e82826200020e565b919050565b600067ffffffffffffffff821115620002815762000280620001df565b5b602082029050602081019050919050565b600080fd5b600073ffffffffffffffffffffffffffffffffffffffff82169050919050565b6000620002c48262000297565b9050919050565b620002d681620002b7565b8114620002e257600080fd5b50565b600081519050620002f681620002cb565b92915050565b6000620003136200030d8462000263565b62000244565b9050808382526020820190506020840283018581111562000339576200033862000292565b5b835b81811015620003665780620003518882620002e5565b8452602084019350506020810190506200033b565b5050509392505050565b600082601f830112620003885762000387620001c9565b5b81516200039a848260208601620002fc565b91505092915050565b600060208284031215620003bc57620003bb620001bf565b5b600082015167ffffffffffffffff811115620003dd57620003dc620001c4565b5b620003eb8482850162000370565b91505092915050565b600081519050919050565b7f4e487b7100000000000000000000000000000000000000000000000000000000600052602260045260246000fd5b600060028204905060018216806200044757607f821691505b6020821081036200045d576200045c620003ff565b5b50919050565b60008190508160005260206000209050919050565b60006020601f8301049050919050565b600082821b905092915050565b600060088302620004c77fffffffffffffffffffffffffffffffffffffffffffffffffffffffffffffffff8262000488565b620004d3868362000488565b95508019841693508086168417925050509392505050565b6000819050919050565b6000819050919050565b6000620005206200051a6200051484620004eb565b620004f5565b620004eb565b9050919050565b6000819050919050565b6200053c83620004ff565b620005546200054b8262000527565b84845462000495565b825550505050565b600090565b6200056b6200055c565b6200057881848462000531565b505050565b5b81811015620005a0576200059460008262000561565b6001810190506200057e565b5050565b601f821115620005ef57620005b98162000463565b620005c48462000478565b81016020851015620005d4578190505b620005ec620005e38562000478565b8301826200057d565b50505b505050565b600082821c905092915050565b60006200061460001984600802620005f4565b1980831691505092915050565b60006200062f838362000601565b9150826002028217905092915050565b6200064a82620003f4565b67ffffffffffffffff811115620006665762000665620001df565b5b6200067282546200042e565b6200067f828285620005a4565b600060209050601f831160018114620006b75760008415620006a2578287015190505b620006ae858262000621565b8655506200071e565b601f198416620006c78662000463565b60005b82811015620006f157848901518255600182019150602085019450602081019050620006ca565b868310156200071157848901516200070d601f89168262000601565b8355505b6001600288020188555050505b505050505050565b7f4e487b7100000000000000000000000000000000000000000000000000000000600052603260045260246000fd5b7f4e487b7100000000000000000000000000000000000000000000000000000000600052601160045260246000fd5b60006200079182620004eb565b91507fffffffffffffffffffffffffffffffffffffffffffffffffffffffffffffffff8203620007c657620007c562000755565b5b600182019050919050565b6141e880620007e16000396000f3fe60806040526004361061014b5760003560e01c806395d89b41116100b6578063babcc5391161006f578063babcc539146104d0578063c4e41b221461050d578063c87b56dd14610538578063cb03186814610575578063e985e9c5146105a0578063eb4c1c46146105dd5761014b565b806395d89b4114610397578063a22cb465146103c2578063a7cd52cb146103eb578063b015aeb814610428578063b3e224b614610465578063b88d4fde146104a75761014b565b806323b872dd1161010857806323b872dd1461027757806342842e0e146102a05780635207c273146102c95780636352211e146102f257806370a082311461032f5780638da5cb5b1461036c5761014b565b806301ffc9a71461015057806306fdde031461018d578063081812fc146101b8578063095ea7b3146101f55780630d7c43f51461021e578063104b6cb71461024e575b600080fd5b34801561015c57600080fd5b50610177600480360381019061017291906129f8565b61061a565b6040516101849190612a40565b60405180910390f35b34801561019957600080fd5b506101a26106fc565b6040516101af9190612aeb565b60405180910390f35b3480156101c457600080fd5b506101df60048036038101906101da9190612b43565b61078e565b6040516101ec9190612bb1565b60405180910390f35b34801561020157600080fd5b5061021c60048036038101906102179190612bf8565b6107d4565b005b61023860048036038101906102339190612d6d565b6108eb565b6040516102459190612e95565b60405180910390f35b34801561025a57600080fd5b5061027560048036038101906102709190612f10565b610be8565b005b34801561028357600080fd5b5061029e60048036038101906102999190612f5d565b610d1d565b005b3480156102ac57600080fd5b506102c760048036038101906102c29190612f5d565b610d7d565b005b3480156102d557600080fd5b506102f060048036038101906102eb9190612f10565b610d9d565b005b3480156102fe57600080fd5b5061031960048036038101906103149190612b43565b610ed2565b6040516103269190612bb1565b60405180910390f35b34801561033b57600080fd5b5061035660048036038101906103519190612fb0565b610f58565b6040516103639190612e95565b60405180910390f35b34801561037857600080fd5b5061038161100f565b60405161038e9190612bb1565b60405180910390f35b3480156103a357600080fd5b506103ac611035565b6040516103b99190612aeb565b60405180910390f35b3480156103ce57600080fd5b506103e960048036038101906103e49190613009565b6110c7565b005b3480156103f757600080fd5b50610412600480360381019061040d9190612fb0565b6110dd565b60405161041f9190612a40565b60405180910390f35b34801561043457600080fd5b5061044f600480360381019061044a9190612fb0565b6110fd565b60405161045c9190612a40565b60405180910390f35b34801561047157600080fd5b5061048c60048036038101906104879190612b43565b6111b2565b60405161049e96959493929190613049565b60405180910390f35b3480156104b357600080fd5b506104ce60048036038101906104c99190613167565b61143e565b005b3480156104dc57600080fd5b506104f760048036038101906104f29190612fb0565b6114a0565b6040516105049190612a40565b60405180910390f35b34801561051957600080fd5b506105226114f6565b60405161052f9190612e95565b60405180910390f35b34801561054457600080fd5b5061055f600480360381019061055a9190612b43565b611507565b60405161056c9190612aeb565b60405180910390f35b34801561058157600080fd5b5061058a611519565b60405161059791906133b2565b60405180910390f35b3480156105ac57600080fd5b506105c760048036038101906105c291906133d4565b611820565b6040516105d49190612a40565b60405180910390f35b3480156105e957600080fd5b5061060460048036038101906105ff9190612fb0565b6118b4565b6040516106119190612e95565b60405180910390f35b60007f80ac58cd000000000000000000000000000000000000000000000000000000007bffffffffffffffffffffffffffffffffffffffffffffffffffffffff1916827bffffffffffffffffffffffffffffffffffffffffffffffffffffffff191614806106e557507f5b5e139f000000000000000000000000000000000000000000000000000000007bffffffffffffffffffffffffffffffffffffffffffffffffffffffff1916827bffffffffffffffffffffffffffffffffffffffffffffffffffffffff1916145b806106f557506106f48261198d565b5b9050919050565b60606000805461070b90613443565b80601f016020809104026020016040519081016040528092919081815260200182805461073790613443565b80156107845780601f1061075957610100808354040283529160200191610784565b820191906000526020600020905b81548152906001019060200180831161076757829003601f168201915b5050505050905090565b6000610799826119f7565b6004600083815260200190815260200160002060009054906101000a900473ffffffffffffffffffffffffffffffffffffffff169050919050565b60006107df82610ed2565b90508073ffffffffffffffffffffffffffffffffffffffff168373ffffffffffffffffffffffffffffffffffffffff160361084f576040517f08c379a0000000000000000000000000000000000000000000000000000000008152600401610846906134e6565b60405180910390fd5b8073ffffffffffffffffffffffffffffffffffffffff1661086e611a42565b73ffffffffffffffffffffffffffffffffffffffff16148061089d575061089c81610897611a42565b611820565b5b6108dc576040517f08c379a00000000000000000000000000000000000000000000000000000000081526004016108d390613578565b60405180910390fd5b6108e68383611a4a565b505050565b6000600c54341015610932576040517f08c379a00000000000000000000000000000000000000000000000000000000081526004016109299061360a565b60405180910390fd5b600960003373ffffffffffffffffffffffffffffffffffffffff1673ffffffffffffffffffffffffffffffffffffffff16815260200190815260200160002060009054906101000a900460ff166109be576040517f08c379a00000000000000000000000000000000000000000000000000000000081526004016109b590613676565b60405180910390fd5b6001600a60003373ffffffffffffffffffffffffffffffffffffffff1673ffffffffffffffffffffffffffffffffffffffff1681526020019081526020016000205410610a40576040517f08c379a0000000000000000000000000000000000000000000000000000000008152600401610a37906136e2565b60405180910390fd5b610a4a6007611b03565b6000610a566007611b19565b9050610a628882611b27565b610a6c8188611b45565b60086040518060c001604052808381526020018881526020018781526020018681526020018581526020018a73ffffffffffffffffffffffffffffffffffffffff168152509080600181540180825580915050600190039060005260206000209060060201600090919091909150600082015181600001556020820151816001019081610af991906138ae565b506040820151816002019081610b0f91906138ae565b506060820151816003019081610b2591906138ae565b506080820151816004019081610b3b91906138ae565b5060a08201518160050160006101000a81548173ffffffffffffffffffffffffffffffffffffffff021916908373ffffffffffffffffffffffffffffffffffffffff1602179055505050600a60003373ffffffffffffffffffffffffffffffffffffffff1673ffffffffffffffffffffffffffffffffffffffff1681526020019081526020016000206000815480929190610bd5906139af565b9190505550809150509695505050505050565b600b60009054906101000a900473ffffffffffffffffffffffffffffffffffffffff1673ffffffffffffffffffffffffffffffffffffffff163373ffffffffffffffffffffffffffffffffffffffff1614610c78576040517f08c379a0000000000000000000000000000000000000000000000000000000008152600401610c6f90613a69565b60405180910390fd5b60005b82829050811015610d1857600060096000858585818110610c9f57610c9e613a89565b5b9050602002016020810190610cb49190612fb0565b73ffffffffffffffffffffffffffffffffffffffff1673ffffffffffffffffffffffffffffffffffffffff16815260200190815260200160002060006101000a81548160ff0219169083151502179055508080610d10906139af565b915050610c7b565b505050565b610d2e610d28611a42565b82611bb2565b610d6d576040517f08c379a0000000000000000000000000000000000000000000000000000000008152600401610d6490613b2a565b60405180910390fd5b610d78838383611c47565b505050565b610d988383836040518060200160405280600081525061143e565b505050565b600b60009054906101000a900473ffffffffffffffffffffffffffffffffffffffff1673ffffffffffffffffffffffffffffffffffffffff163373ffffffffffffffffffffffffffffffffffffffff1614610e2d576040517f08c379a0000000000000000000000000000000000000000000000000000000008152600401610e2490613b96565b60405180910390fd5b60005b82829050811015610ecd57600160096000858585818110610e5457610e53613a89565b5b9050602002016020810190610e699190612fb0565b73ffffffffffffffffffffffffffffffffffffffff1673ffffffffffffffffffffffffffffffffffffffff16815260200190815260200160002060006101000a81548160ff0219169083151502179055508080610ec5906139af565b915050610e30565b505050565b600080610ede83611f40565b9050600073ffffffffffffffffffffffffffffffffffffffff168173ffffffffffffffffffffffffffffffffffffffff1603610f4f576040517f08c379a0000000000000000000000000000000000000000000000000000000008152600401610f4690613c02565b60405180910390fd5b80915050919050565b60008073ffffffffffffffffffffffffffffffffffffffff168273ffffffffffffffffffffffffffffffffffffffff1603610fc8576040517f08c379a0000000000000000000000000000000000000000000000000000000008152600401610fbf90613c94565b60405180910390fd5b600360008373ffffffffffffffffffffffffffffffffffffffff1673ffffffffffffffffffffffffffffffffffffffff168152602001908152602001600020549050919050565b600b60009054906101000a900473ffffffffffffffffffffffffffffffffffffffff1681565b60606001805461104490613443565b80601f016020809104026020016040519081016040528092919081815260200182805461107090613443565b80156110bd5780601f10611092576101008083540402835291602001916110bd565b820191906000526020600020905b8154815290600101906020018083116110a057829003601f168201915b5050505050905090565b6110d96110d2611a42565b8383611f7d565b5050565b60096020528060005260406000206000915054906101000a900460ff1681565b600080600090505b6008805490508110156111a7578273ffffffffffffffffffffffffffffffffffffffff166008828154811061113d5761113c613a89565b5b906000526020600020906006020160050160009054906101000a900473ffffffffffffffffffffffffffffffffffffffff1673ffffffffffffffffffffffffffffffffffffffff16036111945760019150506111ad565b808061119f906139af565b915050611105565b50600090505b919050565b600881815481106111c257600080fd5b90600052602060002090600602016000915090508060000154908060010180546111eb90613443565b80601f016020809104026020016040519081016040528092919081815260200182805461121790613443565b80156112645780601f1061123957610100808354040283529160200191611264565b820191906000526020600020905b81548152906001019060200180831161124757829003601f168201915b50505050509080600201805461127990613443565b80601f01602080910402602001604051908101604052809291908181526020018280546112a590613443565b80156112f25780601f106112c7576101008083540402835291602001916112f2565b820191906000526020600020905b8154815290600101906020018083116112d557829003601f168201915b50505050509080600301805461130790613443565b80601f016020809104026020016040519081016040528092919081815260200182805461133390613443565b80156113805780601f1061135557610100808354040283529160200191611380565b820191906000526020600020905b81548152906001019060200180831161136357829003601f168201915b50505050509080600401805461139590613443565b80601f01602080910402602001604051908101604052809291908181526020018280546113c190613443565b801561140e5780601f106113e35761010080835404028352916020019161140e565b820191906000526020600020905b8154815290600101906020018083116113f157829003601f168201915b5050505050908060050160009054906101000a900473ffffffffffffffffffffffffffffffffffffffff16905086565b61144f611449611a42565b83611bb2565b61148e576040517f08c379a000000000000000000000000000000000000000000000000000000000815260040161148590613b2a565b60405180910390fd5b61149a848484846120e9565b50505050565b6000600960008373ffffffffffffffffffffffffffffffffffffffff1673ffffffffffffffffffffffffffffffffffffffff16815260200190815260200160002060009054906101000a900460ff169050919050565b60006115026007611b19565b905090565b606061151282612145565b9050919050565b60606008805480602002602001604051908101604052809291908181526020016000905b8282101561181757838290600052602060002090600602016040518060c00160405290816000820154815260200160018201805461157a90613443565b80601f01602080910402602001604051908101604052809291908181526020018280546115a690613443565b80156115f35780601f106115c8576101008083540402835291602001916115f3565b820191906000526020600020905b8154815290600101906020018083116115d657829003601f168201915b5050505050815260200160028201805461160c90613443565b80601f016020809104026020016040519081016040528092919081815260200182805461163890613443565b80156116855780601f1061165a57610100808354040283529160200191611685565b820191906000526020600020905b81548152906001019060200180831161166857829003601f168201915b5050505050815260200160038201805461169e90613443565b80601f01602080910402602001604051908101604052809291908181526020018280546116ca90613443565b80156117175780601f106116ec57610100808354040283529160200191611717565b820191906000526020600020905b8154815290600101906020018083116116fa57829003601f168201915b5050505050815260200160048201805461173090613443565b80601f016020809104026020016040519081016040528092919081815260200182805461175c90613443565b80156117a95780601f1061177e576101008083540402835291602001916117a9565b820191906000526020600020905b81548152906001019060200180831161178c57829003601f168201915b505050505081526020016005820160009054906101000a900473ffffffffffffffffffffffffffffffffffffffff1673ffffffffffffffffffffffffffffffffffffffff1673ffffffffffffffffffffffffffffffffffffffff16815250508152602001906001019061153d565b50505050905090565b6000600560008473ffffffffffffffffffffffffffffffffffffffff1673ffffffffffffffffffffffffffffffffffffffff16815260200190815260200160002060008373ffffffffffffffffffffffffffffffffffffffff1673ffffffffffffffffffffffffffffffffffffffff16815260200190815260200160002060009054906101000a900460ff16905092915050565b600080600090505b600880549050811015611982578273ffffffffffffffffffffffffffffffffffffffff16600882815481106118f4576118f3613a89565b5b906000526020600020906006020160050160009054906101000a900473ffffffffffffffffffffffffffffffffffffffff1673ffffffffffffffffffffffffffffffffffffffff160361196f576008818154811061195557611954613a89565b5b906000526020600020906006020160000154915050611988565b808061197a906139af565b9150506118bc565b50600090505b919050565b60007f01ffc9a7000000000000000000000000000000000000000000000000000000007bffffffffffffffffffffffffffffffffffffffffffffffffffffffff1916827bffffffffffffffffffffffffffffffffffffffffffffffffffffffff1916149050919050565b611a0081612257565b611a3f576040517f08c379a0000000000000000000000000000000000000000000000000000000008152600401611a3690613c02565b60405180910390fd5b50565b600033905090565b816004600083815260200190815260200160002060006101000a81548173ffffffffffffffffffffffffffffffffffffffff021916908373ffffffffffffffffffffffffffffffffffffffff160217905550808273ffffffffffffffffffffffffffffffffffffffff16611abd83610ed2565b73ffffffffffffffffffffffffffffffffffffffff167f8c5be1e5ebec7d5bd14f71427d1e84f3dd0314c0f7b2291e5b200ac8c7c3b92560405160405180910390a45050565b6001816000016000828254019250508190555050565b600081600001549050919050565b611b41828260405180602001604052806000815250612298565b5050565b611b4e82612257565b611b8d576040517f08c379a0000000000000000000000000000000000000000000000000000000008152600401611b8490613d26565b60405180910390fd5b80600660008481526020019081526020016000209081611bad91906138ae565b505050565b600080611bbe83610ed2565b90508073ffffffffffffffffffffffffffffffffffffffff168473ffffffffffffffffffffffffffffffffffffffff161480611c005750611bff8185611820565b5b80611c3e57508373ffffffffffffffffffffffffffffffffffffffff16611c268461078e565b73ffffffffffffffffffffffffffffffffffffffff16145b91505092915050565b8273ffffffffffffffffffffffffffffffffffffffff16611c6782610ed2565b73ffffffffffffffffffffffffffffffffffffffff1614611cbd576040517f08c379a0000000000000000000000000000000000000000000000000000000008152600401611cb490613db8565b60405180910390fd5b600073ffffffffffffffffffffffffffffffffffffffff168273ffffffffffffffffffffffffffffffffffffffff1603611d2c576040517f08c379a0000000000000000000000000000000000000000000000000000000008152600401611d2390613e4a565b60405180910390fd5b611d3983838360016122f3565b8273ffffffffffffffffffffffffffffffffffffffff16611d5982610ed2565b73ffffffffffffffffffffffffffffffffffffffff1614611daf576040517f08c379a0000000000000000000000000000000000000000000000000000000008152600401611da690613db8565b60405180910390fd5b6004600082815260200190815260200160002060006101000a81549073ffffffffffffffffffffffffffffffffffffffff02191690556001600360008573ffffffffffffffffffffffffffffffffffffffff1673ffffffffffffffffffffffffffffffffffffffff168152602001908152602001600020600082825403925050819055506001600360008473ffffffffffffffffffffffffffffffffffffffff1673ffffffffffffffffffffffffffffffffffffffff16815260200190815260200160002060008282540192505081905550816002600083815260200190815260200160002060006101000a81548173ffffffffffffffffffffffffffffffffffffffff021916908373ffffffffffffffffffffffffffffffffffffffff160217905550808273ffffffffffffffffffffffffffffffffffffffff168473ffffffffffffffffffffffffffffffffffffffff167fddf252ad1be2c89b69c2b068fc378daa952ba7f163c4a11628f55a4df523b3ef60405160405180910390a4611f3b83838360016122f9565b505050565b60006002600083815260200190815260200160002060009054906101000a900473ffffffffffffffffffffffffffffffffffffffff169050919050565b8173ffffffffffffffffffffffffffffffffffffffff168373ffffffffffffffffffffffffffffffffffffffff1603611feb576040517f08c379a0000000000000000000000000000000000000000000000000000000008152600401611fe290613eb6565b60405180910390fd5b80600560008573ffffffffffffffffffffffffffffffffffffffff1673ffffffffffffffffffffffffffffffffffffffff16815260200190815260200160002060008473ffffffffffffffffffffffffffffffffffffffff1673ffffffffffffffffffffffffffffffffffffffff16815260200190815260200160002060006101000a81548160ff0219169083151502179055508173ffffffffffffffffffffffffffffffffffffffff168373ffffffffffffffffffffffffffffffffffffffff167f17307eab39ab6107e8899845ad3d59bd9653f200f220920489ca2b5937696c31836040516120dc9190612a40565b60405180910390a3505050565b6120f4848484611c47565b612100848484846122ff565b61213f576040517f08c379a000000000000000000000000000000000000000000000000000000000815260040161213690613f48565b60405180910390fd5b50505050565b6060612150826119f7565b600060066000848152602001908152602001600020805461217090613443565b80601f016020809104026020016040519081016040528092919081815260200182805461219c90613443565b80156121e95780601f106121be576101008083540402835291602001916121e9565b820191906000526020600020905b8154815290600101906020018083116121cc57829003601f168201915b5050505050905060006121fa612486565b9050600081510361220f578192505050612252565b60008251111561224457808260405160200161222c929190613fa4565b60405160208183030381529060405292505050612252565b61224d846124c3565b925050505b919050565b60008073ffffffffffffffffffffffffffffffffffffffff1661227983611f40565b73ffffffffffffffffffffffffffffffffffffffff1614159050919050565b6122a2838361252b565b6122af60008484846122ff565b6122ee576040517f08c379a00000000000000000000000000000000000000000000000000000000081526004016122e590613f48565b60405180910390fd5b505050565b50505050565b50505050565b60006123208473ffffffffffffffffffffffffffffffffffffffff16612748565b15612479578373ffffffffffffffffffffffffffffffffffffffff1663150b7a02612349611a42565b8786866040518563ffffffff1660e01b815260040161236b949392919061401d565b6020604051808303816000875af19250505080156123a757506040513d601f19601f820116820180604052508101906123a4919061407e565b60015b612429573d80600081146123d7576040519150601f19603f3d011682016040523d82523d6000602084013e6123dc565b606091505b506000815103612421576040517f08c379a000000000000000000000000000000000000000000000000000000000815260040161241890613f48565b60405180910390fd5b805181602001fd5b63150b7a0260e01b7bffffffffffffffffffffffffffffffffffffffffffffffffffffffff1916817bffffffffffffffffffffffffffffffffffffffffffffffffffffffff19161491505061247e565b600190505b949350505050565b60606040518060400160405280601581526020017f68747470733a2f2f697066732e696f2f697066732f0000000000000000000000815250905090565b60606124ce826119f7565b60006124d8612486565b905060008151116124f85760405180602001604052806000815250612523565b806125028461276b565b604051602001612513929190613fa4565b6040516020818303038152906040525b915050919050565b600073ffffffffffffffffffffffffffffffffffffffff168273ffffffffffffffffffffffffffffffffffffffff160361259a576040517f08c379a0000000000000000000000000000000000000000000000000000000008152600401612591906140f7565b60405180910390fd5b6125a381612257565b156125e3576040517f08c379a00000000000000000000000000000000000000000000000000000000081526004016125da90614163565b60405180910390fd5b6125f16000838360016122f3565b6125fa81612257565b1561263a576040517f08c379a000000000000000000000000000000000000000000000000000000000815260040161263190614163565b60405180910390fd5b6001600360008473ffffffffffffffffffffffffffffffffffffffff1673ffffffffffffffffffffffffffffffffffffffff16815260200190815260200160002060008282540192505081905550816002600083815260200190815260200160002060006101000a81548173ffffffffffffffffffffffffffffffffffffffff021916908373ffffffffffffffffffffffffffffffffffffffff160217905550808273ffffffffffffffffffffffffffffffffffffffff16600073ffffffffffffffffffffffffffffffffffffffff167fddf252ad1be2c89b69c2b068fc378daa952ba7f163c4a11628f55a4df523b3ef60405160405180910390a46127446000838360016122f9565b5050565b6000808273ffffffffffffffffffffffffffffffffffffffff163b119050919050565b60606000600161277a84612839565b01905060008167ffffffffffffffff81111561279957612798612c42565b5b6040519080825280601f01601f1916602001820160405280156127cb5781602001600182028036833780820191505090505b509050600082602001820190505b60011561282e578080600190039150507f3031323334353637383961626364656600000000000000000000000000000000600a86061a8153600a858161282257612821614183565b5b049450600085036127d9575b819350505050919050565b600080600090507a184f03e93ff9f4daa797ed6e38ed64bf6a1f0100000000000000008310612897577a184f03e93ff9f4daa797ed6e38ed64bf6a1f010000000000000000838161288d5761288c614183565b5b0492506040810190505b6d04ee2d6d415b85acef810000000083106128d4576d04ee2d6d415b85acef810000000083816128ca576128c9614183565b5b0492506020810190505b662386f26fc10000831061290357662386f26fc1000083816128f9576128f8614183565b5b0492506010810190505b6305f5e100831061292c576305f5e100838161292257612921614183565b5b0492506008810190505b612710831061295157612710838161294757612946614183565b5b0492506004810190505b60648310612974576064838161296a57612969614183565b5b0492506002810190505b600a8310612983576001810190505b80915050919050565b6000604051905090565b600080fd5b600080fd5b60007fffffffff0000000000000000000000000000000000000000000000000000000082169050919050565b6129d5816129a0565b81146129e057600080fd5b50565b6000813590506129f2816129cc565b92915050565b600060208284031215612a0e57612a0d612996565b5b6000612a1c848285016129e3565b91505092915050565b60008115159050919050565b612a3a81612a25565b82525050565b6000602082019050612a556000830184612a31565b92915050565b600081519050919050565b600082825260208201905092915050565b60005b83811015612a95578082015181840152602081019050612a7a565b60008484015250505050565b6000601f19601f8301169050919050565b6000612abd82612a5b565b612ac78185612a66565b9350612ad7818560208601612a77565b612ae081612aa1565b840191505092915050565b60006020820190508181036000830152612b058184612ab2565b905092915050565b6000819050919050565b612b2081612b0d565b8114612b2b57600080fd5b50565b600081359050612b3d81612b17565b92915050565b600060208284031215612b5957612b58612996565b5b6000612b6784828501612b2e565b91505092915050565b600073ffffffffffffffffffffffffffffffffffffffff82169050919050565b6000612b9b82612b70565b9050919050565b612bab81612b90565b82525050565b6000602082019050612bc66000830184612ba2565b92915050565b612bd581612b90565b8114612be057600080fd5b50565b600081359050612bf281612bcc565b92915050565b60008060408385031215612c0f57612c0e612996565b5b6000612c1d85828601612be3565b9250506020612c2e85828601612b2e565b9150509250929050565b600080fd5b600080fd5b7f4e487b7100000000000000000000000000000000000000000000000000000000600052604160045260246000fd5b612c7a82612aa1565b810181811067ffffffffffffffff82111715612c9957612c98612c42565b5b80604052505050565b6000612cac61298c565b9050612cb88282612c71565b919050565b600067ffffffffffffffff821115612cd857612cd7612c42565b5b612ce182612aa1565b9050602081019050919050565b82818337600083830152505050565b6000612d10612d0b84612cbd565b612ca2565b905082815260208101848484011115612d2c57612d2b612c3d565b5b612d37848285612cee565b509392505050565b600082601f830112612d5457612d53612c38565b5b8135612d64848260208601612cfd565b91505092915050565b60008060008060008060c08789031215612d8a57612d89612996565b5b6000612d9889828a01612be3565b965050602087013567ffffffffffffffff811115612db957612db861299b565b5b612dc589828a01612d3f565b955050604087013567ffffffffffffffff811115612de657612de561299b565b5b612df289828a01612d3f565b945050606087013567ffffffffffffffff811115612e1357612e1261299b565b5b612e1f89828a01612d3f565b935050608087013567ffffffffffffffff811115612e4057612e3f61299b565b5b612e4c89828a01612d3f565b92505060a087013567ffffffffffffffff811115612e6d57612e6c61299b565b5b612e7989828a01612d3f565b9150509295509295509295565b612e8f81612b0d565b82525050565b6000602082019050612eaa6000830184612e86565b92915050565b600080fd5b600080fd5b60008083601f840112612ed057612ecf612c38565b5b8235905067ffffffffffffffff811115612eed57612eec612eb0565b5b602083019150836020820283011115612f0957612f08612eb5565b5b9250929050565b60008060208385031215612f2757612f26612996565b5b600083013567ffffffffffffffff811115612f4557612f4461299b565b5b612f5185828601612eba565b92509250509250929050565b600080600060608486031215612f7657612f75612996565b5b6000612f8486828701612be3565b9350506020612f9586828701612be3565b9250506040612fa686828701612b2e565b9150509250925092565b600060208284031215612fc657612fc5612996565b5b6000612fd484828501612be3565b91505092915050565b612fe681612a25565b8114612ff157600080fd5b50565b60008135905061300381612fdd565b92915050565b600080604083850312156130205761301f612996565b5b600061302e85828601612be3565b925050602061303f85828601612ff4565b9150509250929050565b600060c08201905061305e6000830189612e86565b81810360208301526130708188612ab2565b905081810360408301526130848187612ab2565b905081810360608301526130988186612ab2565b905081810360808301526130ac8185612ab2565b90506130bb60a0830184612ba2565b979650505050505050565b600067ffffffffffffffff8211156130e1576130e0612c42565b5b6130ea82612aa1565b9050602081019050919050565b600061310a613105846130c6565b612ca2565b90508281526020810184848401111561312657613125612c3d565b5b613131848285612cee565b509392505050565b600082601f83011261314e5761314d612c38565b5b813561315e8482602086016130f7565b91505092915050565b6000806000806080858703121561318157613180612996565b5b600061318f87828801612be3565b94505060206131a087828801612be3565b93505060406131b187828801612b2e565b925050606085013567ffffffffffffffff8111156131d2576131d161299b565b5b6131de87828801613139565b91505092959194509250565b600081519050919050565b600082825260208201905092915050565b6000819050602082019050919050565b61321f81612b0d565b82525050565b600082825260208201905092915050565b600061324182612a5b565b61324b8185613225565b935061325b818560208601612a77565b61326481612aa1565b840191505092915050565b61327881612b90565b82525050565b600060c0830160008301516132966000860182613216565b50602083015184820360208601526132ae8282613236565b915050604083015184820360408601526132c88282613236565b915050606083015184820360608601526132e28282613236565b915050608083015184820360808601526132fc8282613236565b91505060a083015161331160a086018261326f565b508091505092915050565b6000613328838361327e565b905092915050565b6000602082019050919050565b6000613348826131ea565b61335281856131f5565b93508360208202850161336485613206565b8060005b858110156133a05784840389528151613381858261331c565b945061338c83613330565b925060208a01995050600181019050613368565b50829750879550505050505092915050565b600060208201905081810360008301526133cc818461333d565b905092915050565b600080604083850312156133eb576133ea612996565b5b60006133f985828601612be3565b925050602061340a85828601612be3565b9150509250929050565b7f4e487b7100000000000000000000000000000000000000000000000000000000600052602260045260246000fd5b6000600282049050600182168061345b57607f821691505b60208210810361346e5761346d613414565b5b50919050565b7f4552433732313a20617070726f76616c20746f2063757272656e74206f776e6560008201527f7200000000000000000000000000000000000000000000000000000000000000602082015250565b60006134d0602183612a66565b91506134db82613474565b604082019050919050565b600060208201905081810360008301526134ff816134c3565b9050919050565b7f4552433732313a20617070726f76652063616c6c6572206973206e6f7420746f60008201527f6b656e206f776e6572206f7220617070726f76656420666f7220616c6c000000602082015250565b6000613562603d83612a66565b915061356d82613506565b604082019050919050565b6000602082019050818103600083015261359181613555565b9050919050565b7f4e6f7420656e6f756768204554482073656e743b20636865636b20707269636560008201527f2100000000000000000000000000000000000000000000000000000000000000602082015250565b60006135f4602183612a66565b91506135ff82613598565b604082019050919050565b60006020820190508181036000830152613623816135e7565b9050919050565b7f41646472657373206e6f74206f6e20616c6c6f776c6973740000000000000000600082015250565b6000613660601883612a66565b915061366b8261362a565b602082019050919050565b6000602082019050818103600083015261368f81613653565b9050919050565b7f4d6178696d756d206d696e742070657220616464726573732072656163686564600082015250565b60006136cc602083612a66565b91506136d782613696565b602082019050919050565b600060208201905081810360008301526136fb816136bf565b9050919050565b60008190508160005260206000209050919050565b60006020601f8301049050919050565b600082821b905092915050565b6000600883026137647fffffffffffffffffffffffffffffffffffffffffffffffffffffffffffffffff82613727565b61376e8683613727565b95508019841693508086168417925050509392505050565b6000819050919050565b60006137ab6137a66137a184612b0d565b613786565b612b0d565b9050919050565b6000819050919050565b6137c583613790565b6137d96137d1826137b2565b848454613734565b825550505050565b600090565b6137ee6137e1565b6137f98184846137bc565b505050565b5b8181101561381d576138126000826137e6565b6001810190506137ff565b5050565b601f8211156138625761383381613702565b61383c84613717565b8101602085101561384b578190505b61385f61385785613717565b8301826137fe565b50505b505050565b600082821c905092915050565b600061388560001984600802613867565b1980831691505092915050565b600061389e8383613874565b9150826002028217905092915050565b6138b782612a5b565b67ffffffffffffffff8111156138d0576138cf612c42565b5b6138da8254613443565b6138e5828285613821565b600060209050601f8311600181146139185760008415613906578287015190505b6139108582613892565b865550613978565b601f19841661392686613702565b60005b8281101561394e57848901518255600182019150602085019450602081019050613929565b8683101561396b5784890151613967601f891682613874565b8355505b6001600288020188555050505b505050505050565b7f4e487b7100000000000000000000000000000000000000000000000000000000600052601160045260246000fd5b60006139ba82612b0d565b91507fffffffffffffffffffffffffffffffffffffffffffffffffffffffffffffffff82036139ec576139eb613980565b5b600182019050919050565b7f4f6e6c79206f776e65722063616e2072656d6f76652066726f6d20616c6c6f7760008201527f6c69737400000000000000000000000000000000000000000000000000000000602082015250565b6000613a53602483612a66565b9150613a5e826139f7565b604082019050919050565b60006020820190508181036000830152613a8281613a46565b9050919050565b7f4e487b7100000000000000000000000000000000000000000000000000000000600052603260045260246000fd5b7f4552433732313a2063616c6c6572206973206e6f7420746f6b656e206f776e6560008201527f72206f7220617070726f76656400000000000000000000000000000000000000602082015250565b6000613b14602d83612a66565b9150613b1f82613ab8565b604082019050919050565b60006020820190508181036000830152613b4381613b07565b9050919050565b7f4f6e6c79206f776e65722063616e2061646420746f20616c6c6f776c69737400600082015250565b6000613b80601f83612a66565b9150613b8b82613b4a565b602082019050919050565b60006020820190508181036000830152613baf81613b73565b9050919050565b7f4552433732313a20696e76616c696420746f6b656e2049440000000000000000600082015250565b6000613bec601883612a66565b9150613bf782613bb6565b602082019050919050565b60006020820190508181036000830152613c1b81613bdf565b9050919050565b7f4552433732313a2061646472657373207a65726f206973206e6f74206120766160008201527f6c6964206f776e65720000000000000000000000000000000000000000000000602082015250565b6000613c7e602983612a66565b9150613c8982613c22565b604082019050919050565b60006020820190508181036000830152613cad81613c71565b9050919050565b7f45524337323155524953746f726167653a2055524920736574206f66206e6f6e60008201527f6578697374656e7420746f6b656e000000000000000000000000000000000000602082015250565b6000613d10602e83612a66565b9150613d1b82613cb4565b604082019050919050565b60006020820190508181036000830152613d3f81613d03565b9050919050565b7f4552433732313a207472616e736665722066726f6d20696e636f72726563742060008201527f6f776e6572000000000000000000000000000000000000000000000000000000602082015250565b6000613da2602583612a66565b9150613dad82613d46565b604082019050919050565b60006020820190508181036000830152613dd181613d95565b9050919050565b7f4552433732313a207472616e7366657220746f20746865207a65726f2061646460008201527f7265737300000000000000000000000000000000000000000000000000000000602082015250565b6000613e34602483612a66565b9150613e3f82613dd8565b604082019050919050565b60006020820190508181036000830152613e6381613e27565b9050919050565b7f4552433732313a20617070726f766520746f2063616c6c657200000000000000600082015250565b6000613ea0601983612a66565b9150613eab82613e6a565b602082019050919050565b60006020820190508181036000830152613ecf81613e93565b9050919050565b7f4552433732313a207472616e7366657220746f206e6f6e20455243373231526560008201527f63656976657220696d706c656d656e7465720000000000000000000000000000602082015250565b6000613f32603283612a66565b9150613f3d82613ed6565b604082019050919050565b60006020820190508181036000830152613f6181613f25565b9050919050565b600081905092915050565b6000613f7e82612a5b565b613f888185613f68565b9350613f98818560208601612a77565b80840191505092915050565b6000613fb08285613f73565b9150613fbc8284613f73565b91508190509392505050565b600081519050919050565b600082825260208201905092915050565b6000613fef82613fc8565b613ff98185613fd3565b9350614009818560208601612a77565b61401281612aa1565b840191505092915050565b60006080820190506140326000830187612ba2565b61403f6020830186612ba2565b61404c6040830185612e86565b818103606083015261405e8184613fe4565b905095945050505050565b600081519050614078816129cc565b92915050565b60006020828403121561409457614093612996565b5b60006140a284828501614069565b91505092915050565b7f4552433732313a206d696e7420746f20746865207a65726f2061646472657373600082015250565b60006140e1602083612a66565b91506140ec826140ab565b602082019050919050565b60006020820190508181036000830152614110816140d4565b9050919050565b7f4552433732313a20746f6b656e20616c7265616479206d696e74656400000000600082015250565b600061414d601c83612a66565b915061415882614117565b602082019050919050565b6000602082019050818103600083015261417c81614140565b9050919050565b7f4e487b7100000000000000000000000000000000000000000000000000000000600052601260045260246000fdfea2646970667358221220b4ee9a798fc90951471378faea0788b41cda48c63e13fa6c0c342f88a039730664736f6c63430008110033",
  "linkReferences": {},
  "deployedLinkReferences": {}
}