{
  "_format": "hh-sol-artifact-1",
  "contractName": "Finale",
  "sourceName": "contracts/Finale.sol",
  "abi": [
    {
      "inputs": [
        {
          "internalType": "address[]",
          "name": "_addresses",
          "type": "address[]"
        }
      ],
      "stateMutability": "nonpayable",
      "type": "constructor"
    },
    {
      "anonymous": false,
      "inputs": [
        {
          "indexed": true,
          "internalType": "address",
          "name": "owner",
          "type": "address"
        },
        {
          "indexed": true,
          "internalType": "address",
          "name": "approved",
          "type": "address"
        },
        {
          "indexed": true,
          "internalType": "uint256",
          "name": "tokenId",
          "type": "uint256"
        }
      ],
      "name": "Approval",
      "type": "event"
    },
    {
      "anonymous": false,
      "inputs": [
        {
          "indexed": true,
          "internalType": "address",
          "name": "owner",
          "type": "address"
        },
        {
          "indexed": true,
          "internalType": "address",
          "name": "operator",
          "type": "address"
        },
        {
          "indexed": false,
          "internalType": "bool",
          "name": "approved",
          "type": "bool"
        }
      ],
      "name": "ApprovalForAll",
      "type": "event"
    },
    {
      "anonymous": false,
      "inputs": [
        {
          "indexed": true,
          "internalType": "address",
          "name": "from",
          "type": "address"
        },
        {
          "indexed": true,
          "internalType": "address",
          "name": "to",
          "type": "address"
        },
        {
          "indexed": true,
          "internalType": "uint256",
          "name": "tokenId",
          "type": "uint256"
        }
      ],
      "name": "Transfer",
      "type": "event"
    },
    {
      "inputs": [
        {
          "internalType": "address[]",
          "name": "_addresses",
          "type": "address[]"
        }
      ],
      "name": "addToAllowlist",
      "outputs": [],
      "stateMutability": "nonpayable",
      "type": "function"
    },
    {
      "inputs": [
        {
          "internalType": "address",
          "name": "",
          "type": "address"
        }
      ],
      "name": "allowlist",
      "outputs": [
        {
          "internalType": "bool",
          "name": "",
          "type": "bool"
        }
      ],
      "stateMutability": "view",
      "type": "function"
    },
    {
      "inputs": [
        {
          "internalType": "address",
          "name": "to",
          "type": "address"
        },
        {
          "internalType": "uint256",
          "name": "tokenId",
          "type": "uint256"
        }
      ],
      "name": "approve",
      "outputs": [],
      "stateMutability": "nonpayable",
      "type": "function"
    },
    {
      "inputs": [
        {
          "internalType": "address",
          "name": "owner",
          "type": "address"
        }
      ],
      "name": "balanceOf",
      "outputs": [
        {
          "internalType": "uint256",
          "name": "",
          "type": "uint256"
        }
      ],
      "stateMutability": "view",
      "type": "function"
    },
    {
      "inputs": [
        {
          "internalType": "uint256",
          "name": "tokenId",
          "type": "uint256"
        }
      ],
      "name": "getApproved",
      "outputs": [
        {
          "internalType": "address",
          "name": "",
          "type": "address"
        }
      ],
      "stateMutability": "view",
      "type": "function"
    },
    {
      "inputs": [
        {
          "internalType": "address",
          "name": "_address",
          "type": "address"
        }
      ],
      "name": "isAllowed",
      "outputs": [
        {
          "internalType": "bool",
          "name": "",
          "type": "bool"
        }
      ],
      "stateMutability": "view",
      "type": "function"
    },
    {
      "inputs": [
        {
          "internalType": "address",
          "name": "owner",
          "type": "address"
        },
        {
          "internalType": "address",
          "name": "operator",
          "type": "address"
        }
      ],
      "name": "isApprovedForAll",
      "outputs": [
        {
          "internalType": "bool",
          "name": "",
          "type": "bool"
        }
      ],
      "stateMutability": "view",
      "type": "function"
    },
    {
      "inputs": [
        {
          "internalType": "address",
          "name": "recipient",
          "type": "address"
        },
        {
          "internalType": "string",
          "name": "tokenURI",
          "type": "string"
        }
      ],
      "name": "mint",
      "outputs": [
        {
          "internalType": "uint256",
          "name": "",
          "type": "uint256"
        }
      ],
      "stateMutability": "payable",
      "type": "function"
    },
    {
      "inputs": [],
      "name": "name",
      "outputs": [
        {
          "internalType": "string",
          "name": "",
          "type": "string"
        }
      ],
      "stateMutability": "view",
      "type": "function"
    },
    {
      "inputs": [],
      "name": "owner",
      "outputs": [
        {
          "internalType": "address",
          "name": "",
          "type": "address"
        }
      ],
      "stateMutability": "view",
      "type": "function"
    },
    {
      "inputs": [
        {
          "internalType": "uint256",
          "name": "tokenId",
          "type": "uint256"
        }
      ],
      "name": "ownerOf",
      "outputs": [
        {
          "internalType": "address",
          "name": "",
          "type": "address"
        }
      ],
      "stateMutability": "view",
      "type": "function"
    },
    {
      "inputs": [
        {
          "internalType": "address[]",
          "name": "_addresses",
          "type": "address[]"
        }
      ],
      "name": "removeFromAllowlist",
      "outputs": [],
      "stateMutability": "nonpayable",
      "type": "function"
    },
    {
      "inputs": [
        {
          "internalType": "address",
          "name": "from",
          "type": "address"
        },
        {
          "internalType": "address",
          "name": "to",
          "type": "address"
        },
        {
          "internalType": "uint256",
          "name": "tokenId",
          "type": "uint256"
        }
      ],
      "name": "safeTransferFrom",
      "outputs": [],
      "stateMutability": "nonpayable",
      "type": "function"
    },
    {
      "inputs": [
        {
          "internalType": "address",
          "name": "from",
          "type": "address"
        },
        {
          "internalType": "address",
          "name": "to",
          "type": "address"
        },
        {
          "internalType": "uint256",
          "name": "tokenId",
          "type": "uint256"
        },
        {
          "internalType": "bytes",
          "name": "data",
          "type": "bytes"
        }
      ],
      "name": "safeTransferFrom",
      "outputs": [],
      "stateMutability": "nonpayable",
      "type": "function"
    },
    {
      "inputs": [
        {
          "internalType": "address",
          "name": "operator",
          "type": "address"
        },
        {
          "internalType": "bool",
          "name": "approved",
          "type": "bool"
        }
      ],
      "name": "setApprovalForAll",
      "outputs": [],
      "stateMutability": "nonpayable",
      "type": "function"
    },
    {
      "inputs": [
        {
          "internalType": "bytes4",
          "name": "interfaceId",
          "type": "bytes4"
        }
      ],
      "name": "supportsInterface",
      "outputs": [
        {
          "internalType": "bool",
          "name": "",
          "type": "bool"
        }
      ],
      "stateMutability": "view",
      "type": "function"
    },
    {
      "inputs": [],
      "name": "symbol",
      "outputs": [
        {
          "internalType": "string",
          "name": "",
          "type": "string"
        }
      ],
      "stateMutability": "view",
      "type": "function"
    },
    {
      "inputs": [
        {
          "internalType": "uint256",
          "name": "tokenId",
          "type": "uint256"
        }
      ],
      "name": "tokenURI",
      "outputs": [
        {
          "internalType": "string",
          "name": "",
          "type": "string"
        }
      ],
      "stateMutability": "view",
      "type": "function"
    },
    {
      "inputs": [
        {
          "internalType": "address",
          "name": "from",
          "type": "address"
        },
        {
          "internalType": "address",
          "name": "to",
          "type": "address"
        },
        {
          "internalType": "uint256",
          "name": "tokenId",
          "type": "uint256"
        }
      ],
      "name": "transferFrom",
      "outputs": [],
      "stateMutability": "nonpayable",
      "type": "function"
    }
  ],
  "bytecode": "0x60806040526651b660cdd58000600a553480156200001c57600080fd5b5060405162003bca38038062003bca8339818101604052810190620000429190620003a3565b6040518060400160405280600a81526020017f46696e616c65204e4654000000000000000000000000000000000000000000008152506040518060400160405280600681526020017f46696e616c6500000000000000000000000000000000000000000000000000008152508160009081620000bf91906200063f565b508060019081620000d191906200063f565b50505033600960006101000a81548173ffffffffffffffffffffffffffffffffffffffff021916908373ffffffffffffffffffffffffffffffffffffffff16021790555060005b8151811015620001ad576001600860008484815181106200013e576200013d62000726565b5b602002602001015173ffffffffffffffffffffffffffffffffffffffff1673ffffffffffffffffffffffffffffffffffffffff16815260200190815260200160002060006101000a81548160ff0219169083151502179055508080620001a49062000784565b91505062000118565b5050620007d1565b6000604051905090565b600080fd5b600080fd5b600080fd5b6000601f19601f8301169050919050565b7f4e487b7100000000000000000000000000000000000000000000000000000000600052604160045260246000fd5b6200021982620001ce565b810181811067ffffffffffffffff821117156200023b576200023a620001df565b5b80604052505050565b600062000250620001b5565b90506200025e82826200020e565b919050565b600067ffffffffffffffff821115620002815762000280620001df565b5b602082029050602081019050919050565b600080fd5b600073ffffffffffffffffffffffffffffffffffffffff82169050919050565b6000620002c48262000297565b9050919050565b620002d681620002b7565b8114620002e257600080fd5b50565b600081519050620002f681620002cb565b92915050565b6000620003136200030d8462000263565b62000244565b9050808382526020820190506020840283018581111562000339576200033862000292565b5b835b81811015620003665780620003518882620002e5565b8452602084019350506020810190506200033b565b5050509392505050565b600082601f830112620003885762000387620001c9565b5b81516200039a848260208601620002fc565b91505092915050565b600060208284031215620003bc57620003bb620001bf565b5b600082015167ffffffffffffffff811115620003dd57620003dc620001c4565b5b620003eb8482850162000370565b91505092915050565b600081519050919050565b7f4e487b7100000000000000000000000000000000000000000000000000000000600052602260045260246000fd5b600060028204905060018216806200044757607f821691505b6020821081036200045d576200045c620003ff565b5b50919050565b60008190508160005260206000209050919050565b60006020601f8301049050919050565b600082821b905092915050565b600060088302620004c77fffffffffffffffffffffffffffffffffffffffffffffffffffffffffffffffff8262000488565b620004d3868362000488565b95508019841693508086168417925050509392505050565b6000819050919050565b6000819050919050565b6000620005206200051a6200051484620004eb565b620004f5565b620004eb565b9050919050565b6000819050919050565b6200053c83620004ff565b620005546200054b8262000527565b84845462000495565b825550505050565b600090565b6200056b6200055c565b6200057881848462000531565b505050565b5b81811015620005a0576200059460008262000561565b6001810190506200057e565b5050565b601f821115620005ef57620005b98162000463565b620005c48462000478565b81016020851015620005d4578190505b620005ec620005e38562000478565b8301826200057d565b50505b505050565b600082821c905092915050565b60006200061460001984600802620005f4565b1980831691505092915050565b60006200062f838362000601565b9150826002028217905092915050565b6200064a82620003f4565b67ffffffffffffffff811115620006665762000665620001df565b5b6200067282546200042e565b6200067f828285620005a4565b600060209050601f831160018114620006b75760008415620006a2578287015190505b620006ae858262000621565b8655506200071e565b601f198416620006c78662000463565b60005b82811015620006f157848901518255600182019150602085019450602081019050620006ca565b868310156200071157848901516200070d601f89168262000601565b8355505b6001600288020188555050505b505050505050565b7f4e487b7100000000000000000000000000000000000000000000000000000000600052603260045260246000fd5b7f4e487b7100000000000000000000000000000000000000000000000000000000600052601160045260246000fd5b60006200079182620004eb565b91507fffffffffffffffffffffffffffffffffffffffffffffffffffffffffffffffff8203620007c657620007c562000755565b5b600182019050919050565b6133e980620007e16000396000f3fe6080604052600436106101145760003560e01c806370a08231116100a0578063b88d4fde11610064578063b88d4fde146103c1578063babcc539146103ea578063c87b56dd14610427578063d0def52114610464578063e985e9c51461049457610114565b806370a08231146102c85780638da5cb5b1461030557806395d89b4114610330578063a22cb4651461035b578063a7cd52cb1461038457610114565b8063104b6cb7116100e7578063104b6cb7146101e757806323b872dd1461021057806342842e0e146102395780635207c273146102625780636352211e1461028b57610114565b806301ffc9a71461011957806306fdde0314610156578063081812fc14610181578063095ea7b3146101be575b600080fd5b34801561012557600080fd5b50610140600480360381019061013b9190611f89565b6104d1565b60405161014d9190611fd1565b60405180910390f35b34801561016257600080fd5b5061016b6105b3565b604051610178919061207c565b60405180910390f35b34801561018d57600080fd5b506101a860048036038101906101a391906120d4565b610645565b6040516101b59190612142565b60405180910390f35b3480156101ca57600080fd5b506101e560048036038101906101e09190612189565b61068b565b005b3480156101f357600080fd5b5061020e6004803603810190610209919061222e565b6107a2565b005b34801561021c57600080fd5b506102376004803603810190610232919061227b565b6108d7565b005b34801561024557600080fd5b50610260600480360381019061025b919061227b565b610937565b005b34801561026e57600080fd5b506102896004803603810190610284919061222e565b610957565b005b34801561029757600080fd5b506102b260048036038101906102ad91906120d4565b610a8c565b6040516102bf9190612142565b60405180910390f35b3480156102d457600080fd5b506102ef60048036038101906102ea91906122ce565b610b12565b6040516102fc919061230a565b60405180910390f35b34801561031157600080fd5b5061031a610bc9565b6040516103279190612142565b60405180910390f35b34801561033c57600080fd5b50610345610bef565b604051610352919061207c565b60405180910390f35b34801561036757600080fd5b50610382600480360381019061037d9190612351565b610c81565b005b34801561039057600080fd5b506103ab60048036038101906103a691906122ce565b610c97565b6040516103b89190611fd1565b60405180910390f35b3480156103cd57600080fd5b506103e860048036038101906103e391906124c1565b610cb7565b005b3480156103f657600080fd5b50610411600480360381019061040c91906122ce565b610d19565b60405161041e9190611fd1565b60405180910390f35b34801561043357600080fd5b5061044e600480360381019061044991906120d4565b610d6f565b60405161045b919061207c565b60405180910390f35b61047e600480360381019061047991906125e5565b610d81565b60405161048b919061230a565b60405180910390f35b3480156104a057600080fd5b506104bb60048036038101906104b69190612641565b610e8a565b6040516104c89190611fd1565b60405180910390f35b60007f80ac58cd000000000000000000000000000000000000000000000000000000007bffffffffffffffffffffffffffffffffffffffffffffffffffffffff1916827bffffffffffffffffffffffffffffffffffffffffffffffffffffffff1916148061059c57507f5b5e139f000000000000000000000000000000000000000000000000000000007bffffffffffffffffffffffffffffffffffffffffffffffffffffffff1916827bffffffffffffffffffffffffffffffffffffffffffffffffffffffff1916145b806105ac57506105ab82610f1e565b5b9050919050565b6060600080546105c2906126b0565b80601f01602080910402602001604051908101604052809291908181526020018280546105ee906126b0565b801561063b5780601f106106105761010080835404028352916020019161063b565b820191906000526020600020905b81548152906001019060200180831161061e57829003601f168201915b5050505050905090565b600061065082610f88565b6004600083815260200190815260200160002060009054906101000a900473ffffffffffffffffffffffffffffffffffffffff169050919050565b600061069682610a8c565b90508073ffffffffffffffffffffffffffffffffffffffff168373ffffffffffffffffffffffffffffffffffffffff1603610706576040517f08c379a00000000000000000000000000000000000000000000000000000000081526004016106fd90612753565b60405180910390fd5b8073ffffffffffffffffffffffffffffffffffffffff16610725610fd3565b73ffffffffffffffffffffffffffffffffffffffff16148061075457506107538161074e610fd3565b610e8a565b5b610793576040517f08c379a000000000000000000000000000000000000000000000000000000000815260040161078a906127e5565b60405180910390fd5b61079d8383610fdb565b505050565b600960009054906101000a900473ffffffffffffffffffffffffffffffffffffffff1673ffffffffffffffffffffffffffffffffffffffff163373ffffffffffffffffffffffffffffffffffffffff1614610832576040517f08c379a000000000000000000000000000000000000000000000000000000000815260040161082990612877565b60405180910390fd5b60005b828290508110156108d25760006008600085858581811061085957610858612897565b5b905060200201602081019061086e91906122ce565b73ffffffffffffffffffffffffffffffffffffffff1673ffffffffffffffffffffffffffffffffffffffff16815260200190815260200160002060006101000a81548160ff02191690831515021790555080806108ca906128f5565b915050610835565b505050565b6108e86108e2610fd3565b82611094565b610927576040517f08c379a000000000000000000000000000000000000000000000000000000000815260040161091e906129af565b60405180910390fd5b610932838383611129565b505050565b61095283838360405180602001604052806000815250610cb7565b505050565b600960009054906101000a900473ffffffffffffffffffffffffffffffffffffffff1673ffffffffffffffffffffffffffffffffffffffff163373ffffffffffffffffffffffffffffffffffffffff16146109e7576040517f08c379a00000000000000000000000000000000000000000000000000000000081526004016109de90612a1b565b60405180910390fd5b60005b82829050811015610a8757600160086000858585818110610a0e57610a0d612897565b5b9050602002016020810190610a2391906122ce565b73ffffffffffffffffffffffffffffffffffffffff1673ffffffffffffffffffffffffffffffffffffffff16815260200190815260200160002060006101000a81548160ff0219169083151502179055508080610a7f906128f5565b9150506109ea565b505050565b600080610a9883611422565b9050600073ffffffffffffffffffffffffffffffffffffffff168173ffffffffffffffffffffffffffffffffffffffff1603610b09576040517f08c379a0000000000000000000000000000000000000000000000000000000008152600401610b0090612a87565b60405180910390fd5b80915050919050565b60008073ffffffffffffffffffffffffffffffffffffffff168273ffffffffffffffffffffffffffffffffffffffff1603610b82576040517f08c379a0000000000000000000000000000000000000000000000000000000008152600401610b7990612b19565b60405180910390fd5b600360008373ffffffffffffffffffffffffffffffffffffffff1673ffffffffffffffffffffffffffffffffffffffff168152602001908152602001600020549050919050565b600960009054906101000a900473ffffffffffffffffffffffffffffffffffffffff1681565b606060018054610bfe906126b0565b80601f0160208091040260200160405190810160405280929190818152602001828054610c2a906126b0565b8015610c775780601f10610c4c57610100808354040283529160200191610c77565b820191906000526020600020905b815481529060010190602001808311610c5a57829003601f168201915b5050505050905090565b610c93610c8c610fd3565b838361145f565b5050565b60086020528060005260406000206000915054906101000a900460ff1681565b610cc8610cc2610fd3565b83611094565b610d07576040517f08c379a0000000000000000000000000000000000000000000000000000000008152600401610cfe906129af565b60405180910390fd5b610d13848484846115cb565b50505050565b6000600860008373ffffffffffffffffffffffffffffffffffffffff1673ffffffffffffffffffffffffffffffffffffffff16815260200190815260200160002060009054906101000a900460ff169050919050565b6060610d7a82611627565b9050919050565b6000600a54341015610dc8576040517f08c379a0000000000000000000000000000000000000000000000000000000008152600401610dbf90612bab565b60405180910390fd5b600860003373ffffffffffffffffffffffffffffffffffffffff1673ffffffffffffffffffffffffffffffffffffffff16815260200190815260200160002060009054906101000a900460ff16610e54576040517f08c379a0000000000000000000000000000000000000000000000000000000008152600401610e4b90612c17565b60405180910390fd5b610e5e6007611739565b6000610e6a600761174f565b9050610e76848261175d565b610e80818461177b565b8091505092915050565b6000600560008473ffffffffffffffffffffffffffffffffffffffff1673ffffffffffffffffffffffffffffffffffffffff16815260200190815260200160002060008373ffffffffffffffffffffffffffffffffffffffff1673ffffffffffffffffffffffffffffffffffffffff16815260200190815260200160002060009054906101000a900460ff16905092915050565b60007f01ffc9a7000000000000000000000000000000000000000000000000000000007bffffffffffffffffffffffffffffffffffffffffffffffffffffffff1916827bffffffffffffffffffffffffffffffffffffffffffffffffffffffff1916149050919050565b610f91816117e8565b610fd0576040517f08c379a0000000000000000000000000000000000000000000000000000000008152600401610fc790612a87565b60405180910390fd5b50565b600033905090565b816004600083815260200190815260200160002060006101000a81548173ffffffffffffffffffffffffffffffffffffffff021916908373ffffffffffffffffffffffffffffffffffffffff160217905550808273ffffffffffffffffffffffffffffffffffffffff1661104e83610a8c565b73ffffffffffffffffffffffffffffffffffffffff167f8c5be1e5ebec7d5bd14f71427d1e84f3dd0314c0f7b2291e5b200ac8c7c3b92560405160405180910390a45050565b6000806110a083610a8c565b90508073ffffffffffffffffffffffffffffffffffffffff168473ffffffffffffffffffffffffffffffffffffffff1614806110e257506110e18185610e8a565b5b8061112057508373ffffffffffffffffffffffffffffffffffffffff1661110884610645565b73ffffffffffffffffffffffffffffffffffffffff16145b91505092915050565b8273ffffffffffffffffffffffffffffffffffffffff1661114982610a8c565b73ffffffffffffffffffffffffffffffffffffffff161461119f576040517f08c379a000000000000000000000000000000000000000000000000000000000815260040161119690612ca9565b60405180910390fd5b600073ffffffffffffffffffffffffffffffffffffffff168273ffffffffffffffffffffffffffffffffffffffff160361120e576040517f08c379a000000000000000000000000000000000000000000000000000000000815260040161120590612d3b565b60405180910390fd5b61121b8383836001611829565b8273ffffffffffffffffffffffffffffffffffffffff1661123b82610a8c565b73ffffffffffffffffffffffffffffffffffffffff1614611291576040517f08c379a000000000000000000000000000000000000000000000000000000000815260040161128890612ca9565b60405180910390fd5b6004600082815260200190815260200160002060006101000a81549073ffffffffffffffffffffffffffffffffffffffff02191690556001600360008573ffffffffffffffffffffffffffffffffffffffff1673ffffffffffffffffffffffffffffffffffffffff168152602001908152602001600020600082825403925050819055506001600360008473ffffffffffffffffffffffffffffffffffffffff1673ffffffffffffffffffffffffffffffffffffffff16815260200190815260200160002060008282540192505081905550816002600083815260200190815260200160002060006101000a81548173ffffffffffffffffffffffffffffffffffffffff021916908373ffffffffffffffffffffffffffffffffffffffff160217905550808273ffffffffffffffffffffffffffffffffffffffff168473ffffffffffffffffffffffffffffffffffffffff167fddf252ad1be2c89b69c2b068fc378daa952ba7f163c4a11628f55a4df523b3ef60405160405180910390a461141d838383600161182f565b505050565b60006002600083815260200190815260200160002060009054906101000a900473ffffffffffffffffffffffffffffffffffffffff169050919050565b8173ffffffffffffffffffffffffffffffffffffffff168373ffffffffffffffffffffffffffffffffffffffff16036114cd576040517f08c379a00000000000000000000000000000000000000000000000000000000081526004016114c490612da7565b60405180910390fd5b80600560008573ffffffffffffffffffffffffffffffffffffffff1673ffffffffffffffffffffffffffffffffffffffff16815260200190815260200160002060008473ffffffffffffffffffffffffffffffffffffffff1673ffffffffffffffffffffffffffffffffffffffff16815260200190815260200160002060006101000a81548160ff0219169083151502179055508173ffffffffffffffffffffffffffffffffffffffff168373ffffffffffffffffffffffffffffffffffffffff167f17307eab39ab6107e8899845ad3d59bd9653f200f220920489ca2b5937696c31836040516115be9190611fd1565b60405180910390a3505050565b6115d6848484611129565b6115e284848484611835565b611621576040517f08c379a000000000000000000000000000000000000000000000000000000000815260040161161890612e39565b60405180910390fd5b50505050565b606061163282610f88565b6000600660008481526020019081526020016000208054611652906126b0565b80601f016020809104026020016040519081016040528092919081815260200182805461167e906126b0565b80156116cb5780601f106116a0576101008083540402835291602001916116cb565b820191906000526020600020905b8154815290600101906020018083116116ae57829003601f168201915b5050505050905060006116dc6119bc565b905060008151036116f1578192505050611734565b60008251111561172657808260405160200161170e929190612e95565b60405160208183030381529060405292505050611734565b61172f846119f9565b925050505b919050565b6001816000016000828254019250508190555050565b600081600001549050919050565b611777828260405180602001604052806000815250611a61565b5050565b611784826117e8565b6117c3576040517f08c379a00000000000000000000000000000000000000000000000000000000081526004016117ba90612f2b565b60405180910390fd5b806006600084815260200190815260200160002090816117e391906130f7565b505050565b60008073ffffffffffffffffffffffffffffffffffffffff1661180a83611422565b73ffffffffffffffffffffffffffffffffffffffff1614159050919050565b50505050565b50505050565b60006118568473ffffffffffffffffffffffffffffffffffffffff16611abc565b156119af578373ffffffffffffffffffffffffffffffffffffffff1663150b7a0261187f610fd3565b8786866040518563ffffffff1660e01b81526004016118a1949392919061321e565b6020604051808303816000875af19250505080156118dd57506040513d601f19601f820116820180604052508101906118da919061327f565b60015b61195f573d806000811461190d576040519150601f19603f3d011682016040523d82523d6000602084013e611912565b606091505b506000815103611957576040517f08c379a000000000000000000000000000000000000000000000000000000000815260040161194e90612e39565b60405180910390fd5b805181602001fd5b63150b7a0260e01b7bffffffffffffffffffffffffffffffffffffffffffffffffffffffff1916817bffffffffffffffffffffffffffffffffffffffffffffffffffffffff1916149150506119b4565b600190505b949350505050565b60606040518060400160405280601581526020017f68747470733a2f2f697066732e696f2f697066732f0000000000000000000000815250905090565b6060611a0482610f88565b6000611a0e6119bc565b90506000815111611a2e5760405180602001604052806000815250611a59565b80611a3884611adf565b604051602001611a49929190612e95565b6040516020818303038152906040525b915050919050565b611a6b8383611bad565b611a786000848484611835565b611ab7576040517f08c379a0000000000000000000000000000000000000000000000000000000008152600401611aae90612e39565b60405180910390fd5b505050565b6000808273ffffffffffffffffffffffffffffffffffffffff163b119050919050565b606060006001611aee84611dca565b01905060008167ffffffffffffffff811115611b0d57611b0c612396565b5b6040519080825280601f01601f191660200182016040528015611b3f5781602001600182028036833780820191505090505b509050600082602001820190505b600115611ba2578080600190039150507f3031323334353637383961626364656600000000000000000000000000000000600a86061a8153600a8581611b9657611b956132ac565b5b04945060008503611b4d575b819350505050919050565b600073ffffffffffffffffffffffffffffffffffffffff168273ffffffffffffffffffffffffffffffffffffffff1603611c1c576040517f08c379a0000000000000000000000000000000000000000000000000000000008152600401611c1390613327565b60405180910390fd5b611c25816117e8565b15611c65576040517f08c379a0000000000000000000000000000000000000000000000000000000008152600401611c5c90613393565b60405180910390fd5b611c73600083836001611829565b611c7c816117e8565b15611cbc576040517f08c379a0000000000000000000000000000000000000000000000000000000008152600401611cb390613393565b60405180910390fd5b6001600360008473ffffffffffffffffffffffffffffffffffffffff1673ffffffffffffffffffffffffffffffffffffffff16815260200190815260200160002060008282540192505081905550816002600083815260200190815260200160002060006101000a81548173ffffffffffffffffffffffffffffffffffffffff021916908373ffffffffffffffffffffffffffffffffffffffff160217905550808273ffffffffffffffffffffffffffffffffffffffff16600073ffffffffffffffffffffffffffffffffffffffff167fddf252ad1be2c89b69c2b068fc378daa952ba7f163c4a11628f55a4df523b3ef60405160405180910390a4611dc660008383600161182f565b5050565b600080600090507a184f03e93ff9f4daa797ed6e38ed64bf6a1f0100000000000000008310611e28577a184f03e93ff9f4daa797ed6e38ed64bf6a1f0100000000000000008381611e1e57611e1d6132ac565b5b0492506040810190505b6d04ee2d6d415b85acef81000000008310611e65576d04ee2d6d415b85acef81000000008381611e5b57611e5a6132ac565b5b0492506020810190505b662386f26fc100008310611e9457662386f26fc100008381611e8a57611e896132ac565b5b0492506010810190505b6305f5e1008310611ebd576305f5e1008381611eb357611eb26132ac565b5b0492506008810190505b6127108310611ee2576127108381611ed857611ed76132ac565b5b0492506004810190505b60648310611f055760648381611efb57611efa6132ac565b5b0492506002810190505b600a8310611f14576001810190505b80915050919050565b6000604051905090565b600080fd5b600080fd5b60007fffffffff0000000000000000000000000000000000000000000000000000000082169050919050565b611f6681611f31565b8114611f7157600080fd5b50565b600081359050611f8381611f5d565b92915050565b600060208284031215611f9f57611f9e611f27565b5b6000611fad84828501611f74565b91505092915050565b60008115159050919050565b611fcb81611fb6565b82525050565b6000602082019050611fe66000830184611fc2565b92915050565b600081519050919050565b600082825260208201905092915050565b60005b8381101561202657808201518184015260208101905061200b565b60008484015250505050565b6000601f19601f8301169050919050565b600061204e82611fec565b6120588185611ff7565b9350612068818560208601612008565b61207181612032565b840191505092915050565b600060208201905081810360008301526120968184612043565b905092915050565b6000819050919050565b6120b18161209e565b81146120bc57600080fd5b50565b6000813590506120ce816120a8565b92915050565b6000602082840312156120ea576120e9611f27565b5b60006120f8848285016120bf565b91505092915050565b600073ffffffffffffffffffffffffffffffffffffffff82169050919050565b600061212c82612101565b9050919050565b61213c81612121565b82525050565b60006020820190506121576000830184612133565b92915050565b61216681612121565b811461217157600080fd5b50565b6000813590506121838161215d565b92915050565b600080604083850312156121a05761219f611f27565b5b60006121ae85828601612174565b92505060206121bf858286016120bf565b9150509250929050565b600080fd5b600080fd5b600080fd5b60008083601f8401126121ee576121ed6121c9565b5b8235905067ffffffffffffffff81111561220b5761220a6121ce565b5b602083019150836020820283011115612227576122266121d3565b5b9250929050565b6000806020838503121561224557612244611f27565b5b600083013567ffffffffffffffff81111561226357612262611f2c565b5b61226f858286016121d8565b92509250509250929050565b60008060006060848603121561229457612293611f27565b5b60006122a286828701612174565b93505060206122b386828701612174565b92505060406122c4868287016120bf565b9150509250925092565b6000602082840312156122e4576122e3611f27565b5b60006122f284828501612174565b91505092915050565b6123048161209e565b82525050565b600060208201905061231f60008301846122fb565b92915050565b61232e81611fb6565b811461233957600080fd5b50565b60008135905061234b81612325565b92915050565b6000806040838503121561236857612367611f27565b5b600061237685828601612174565b92505060206123878582860161233c565b9150509250929050565b600080fd5b7f4e487b7100000000000000000000000000000000000000000000000000000000600052604160045260246000fd5b6123ce82612032565b810181811067ffffffffffffffff821117156123ed576123ec612396565b5b80604052505050565b6000612400611f1d565b905061240c82826123c5565b919050565b600067ffffffffffffffff82111561242c5761242b612396565b5b61243582612032565b9050602081019050919050565b82818337600083830152505050565b600061246461245f84612411565b6123f6565b9050828152602081018484840111156124805761247f612391565b5b61248b848285612442565b509392505050565b600082601f8301126124a8576124a76121c9565b5b81356124b8848260208601612451565b91505092915050565b600080600080608085870312156124db576124da611f27565b5b60006124e987828801612174565b94505060206124fa87828801612174565b935050604061250b878288016120bf565b925050606085013567ffffffffffffffff81111561252c5761252b611f2c565b5b61253887828801612493565b91505092959194509250565b600067ffffffffffffffff82111561255f5761255e612396565b5b61256882612032565b9050602081019050919050565b600061258861258384612544565b6123f6565b9050828152602081018484840111156125a4576125a3612391565b5b6125af848285612442565b509392505050565b600082601f8301126125cc576125cb6121c9565b5b81356125dc848260208601612575565b91505092915050565b600080604083850312156125fc576125fb611f27565b5b600061260a85828601612174565b925050602083013567ffffffffffffffff81111561262b5761262a611f2c565b5b612637858286016125b7565b9150509250929050565b6000806040838503121561265857612657611f27565b5b600061266685828601612174565b925050602061267785828601612174565b9150509250929050565b7f4e487b7100000000000000000000000000000000000000000000000000000000600052602260045260246000fd5b600060028204905060018216806126c857607f821691505b6020821081036126db576126da612681565b5b50919050565b7f4552433732313a20617070726f76616c20746f2063757272656e74206f776e6560008201527f7200000000000000000000000000000000000000000000000000000000000000602082015250565b600061273d602183611ff7565b9150612748826126e1565b604082019050919050565b6000602082019050818103600083015261276c81612730565b9050919050565b7f4552433732313a20617070726f76652063616c6c6572206973206e6f7420746f60008201527f6b656e206f776e6572206f7220617070726f76656420666f7220616c6c000000602082015250565b60006127cf603d83611ff7565b91506127da82612773565b604082019050919050565b600060208201905081810360008301526127fe816127c2565b9050919050565b7f4f6e6c79206f776e65722063616e2072656d6f76652066726f6d20616c6c6f7760008201527f6c69737400000000000000000000000000000000000000000000000000000000602082015250565b6000612861602483611ff7565b915061286c82612805565b604082019050919050565b6000602082019050818103600083015261289081612854565b9050919050565b7f4e487b7100000000000000000000000000000000000000000000000000000000600052603260045260246000fd5b7f4e487b7100000000000000000000000000000000000000000000000000000000600052601160045260246000fd5b60006129008261209e565b91507fffffffffffffffffffffffffffffffffffffffffffffffffffffffffffffffff8203612932576129316128c6565b5b600182019050919050565b7f4552433732313a2063616c6c6572206973206e6f7420746f6b656e206f776e6560008201527f72206f7220617070726f76656400000000000000000000000000000000000000602082015250565b6000612999602d83611ff7565b91506129a48261293d565b604082019050919050565b600060208201905081810360008301526129c88161298c565b9050919050565b7f4f6e6c79206f776e65722063616e2061646420746f20616c6c6f776c69737400600082015250565b6000612a05601f83611ff7565b9150612a10826129cf565b602082019050919050565b60006020820190508181036000830152612a34816129f8565b9050919050565b7f4552433732313a20696e76616c696420746f6b656e2049440000000000000000600082015250565b6000612a71601883611ff7565b9150612a7c82612a3b565b602082019050919050565b60006020820190508181036000830152612aa081612a64565b9050919050565b7f4552433732313a2061646472657373207a65726f206973206e6f74206120766160008201527f6c6964206f776e65720000000000000000000000000000000000000000000000602082015250565b6000612b03602983611ff7565b9150612b0e82612aa7565b604082019050919050565b60006020820190508181036000830152612b3281612af6565b9050919050565b7f4e6f7420656e6f756768204554482073656e743b20636865636b20707269636560008201527f2100000000000000000000000000000000000000000000000000000000000000602082015250565b6000612b95602183611ff7565b9150612ba082612b39565b604082019050919050565b60006020820190508181036000830152612bc481612b88565b9050919050565b7f41646472657373206e6f74206f6e20616c6c6f776c6973740000000000000000600082015250565b6000612c01601883611ff7565b9150612c0c82612bcb565b602082019050919050565b60006020820190508181036000830152612c3081612bf4565b9050919050565b7f4552433732313a207472616e736665722066726f6d20696e636f72726563742060008201527f6f776e6572000000000000000000000000000000000000000000000000000000602082015250565b6000612c93602583611ff7565b9150612c9e82612c37565b604082019050919050565b60006020820190508181036000830152612cc281612c86565b9050919050565b7f4552433732313a207472616e7366657220746f20746865207a65726f2061646460008201527f7265737300000000000000000000000000000000000000000000000000000000602082015250565b6000612d25602483611ff7565b9150612d3082612cc9565b604082019050919050565b60006020820190508181036000830152612d5481612d18565b9050919050565b7f4552433732313a20617070726f766520746f2063616c6c657200000000000000600082015250565b6000612d91601983611ff7565b9150612d9c82612d5b565b602082019050919050565b60006020820190508181036000830152612dc081612d84565b9050919050565b7f4552433732313a207472616e7366657220746f206e6f6e20455243373231526560008201527f63656976657220696d706c656d656e7465720000000000000000000000000000602082015250565b6000612e23603283611ff7565b9150612e2e82612dc7565b604082019050919050565b60006020820190508181036000830152612e5281612e16565b9050919050565b600081905092915050565b6000612e6f82611fec565b612e798185612e59565b9350612e89818560208601612008565b80840191505092915050565b6000612ea18285612e64565b9150612ead8284612e64565b91508190509392505050565b7f45524337323155524953746f726167653a2055524920736574206f66206e6f6e60008201527f6578697374656e7420746f6b656e000000000000000000000000000000000000602082015250565b6000612f15602e83611ff7565b9150612f2082612eb9565b604082019050919050565b60006020820190508181036000830152612f4481612f08565b9050919050565b60008190508160005260206000209050919050565b60006020601f8301049050919050565b600082821b905092915050565b600060088302612fad7fffffffffffffffffffffffffffffffffffffffffffffffffffffffffffffffff82612f70565b612fb78683612f70565b95508019841693508086168417925050509392505050565b6000819050919050565b6000612ff4612fef612fea8461209e565b612fcf565b61209e565b9050919050565b6000819050919050565b61300e83612fd9565b61302261301a82612ffb565b848454612f7d565b825550505050565b600090565b61303761302a565b613042818484613005565b505050565b5b818110156130665761305b60008261302f565b600181019050613048565b5050565b601f8211156130ab5761307c81612f4b565b61308584612f60565b81016020851015613094578190505b6130a86130a085612f60565b830182613047565b50505b505050565b600082821c905092915050565b60006130ce600019846008026130b0565b1980831691505092915050565b60006130e783836130bd565b9150826002028217905092915050565b61310082611fec565b67ffffffffffffffff81111561311957613118612396565b5b61312382546126b0565b61312e82828561306a565b600060209050601f831160018114613161576000841561314f578287015190505b61315985826130db565b8655506131c1565b601f19841661316f86612f4b565b60005b8281101561319757848901518255600182019150602085019450602081019050613172565b868310156131b457848901516131b0601f8916826130bd565b8355505b6001600288020188555050505b505050505050565b600081519050919050565b600082825260208201905092915050565b60006131f0826131c9565b6131fa81856131d4565b935061320a818560208601612008565b61321381612032565b840191505092915050565b60006080820190506132336000830187612133565b6132406020830186612133565b61324d60408301856122fb565b818103606083015261325f81846131e5565b905095945050505050565b60008151905061327981611f5d565b92915050565b60006020828403121561329557613294611f27565b5b60006132a38482850161326a565b91505092915050565b7f4e487b7100000000000000000000000000000000000000000000000000000000600052601260045260246000fd5b7f4552433732313a206d696e7420746f20746865207a65726f2061646472657373600082015250565b6000613311602083611ff7565b915061331c826132db565b602082019050919050565b6000602082019050818103600083015261334081613304565b9050919050565b7f4552433732313a20746f6b656e20616c7265616479206d696e74656400000000600082015250565b600061337d601c83611ff7565b915061338882613347565b602082019050919050565b600060208201905081810360008301526133ac81613370565b905091905056fea264697066735822122038ed899e75dab26e8e8e9bf424a0b181bed22648750f0b2041916845579f960e64736f6c63430008110033",
  "linkReferences": {},
  "deployedLinkReferences": {}
}